:1000000000020010610B0000610C0000610C000098
:10001000610C0000610C0000610C0000610C00002C
:10002000610C0000610C0000610C0000910C0000EC
:10003000610C0000610C0000610C0000710D0000FB
:10004000610C0000F121000021220000512200007B
:1000500081220000D1240000610C0000F124000086
:10006000610C0000610C0000610C0000610C0000DC
:10007000610C0000610C0000012700002127000036
:10008000610C0000610C0000610C0000610C0000BC
:10009000610C0000610C000071200000610C000088
:1000A000610C000071270000610C0000610C000071
:1000B000610C0000610C0000610C0000610C00008C
:0C00C000610C0000610C000091280000A1
:1000D00010B5002482B001F023FE00F0B9FE4FF409
:1000E0007A7001F0E5F81649164801F039FF164913
:1000F000144801F035FB4FF4FA7001F0D9F81349B8
:10010000134801F065FE134B41224FF4987100949F
:10011000114801F08DF8114B47224FF4D87100942B
:100120000F4801F085F800940E4B45224FF4D8712A
:100130000D4801F07DF841F2883001F0B9F8FAE796
:10014000302E000054060010402D0000302D00001D
:100150002C070010412B000018090010A12B0000F3
:1001600068070010C12A0000480A001000000000C3
:1001700081F0004102E000BF83F0004330B54FEA58
:1001800041044FEA430594EA050F08BF90EA020FC5
:100190001FBF54EA000C55EA020C7FEA645C7FEA58
:1001A000655C00F0E2804FEA5454D4EB5555B8BF7B
:1001B0006D420CDD2C4480EA020281EA030382EAEC
:1001C000000083EA010180EA020281EA0303362D7E
:1001D00088BF30BD11F0004F4FEA01314FF4801C51
:1001E0004CEA113102D0404261EB410113F0004F63
:1001F0004FEA03334CEA133302D0524263EB43031A
:1002000094EA050F00F0A780A4F10104D5F1200EB7
:100210000DDB02FA0EFC22FA05F2801841F1000112
:1002200003FA0EF2801843FA05F359410EE0A5F1E6
:1002300020050EF1200E012A03FA0EFC28BF4CF017
:10024000020C43FA05F3C01851EBE37101F00045CD
:1002500007D54FF0000EDCF1000C7EEB00006EEBDA
:100260000101B1F5801F1BD3B1F5001F0CD3490864
:100270005FEA30004FEA3C0C04F101044FEA4452BB
:1002800012F5800F80F09A80BCF1004F08BF5FEA42
:10029000500C50F1000041EB045141EA050130BD22
:1002A0005FEA4C0C404141EB010111F4801FA4F1C5
:1002B0000104E9D191F0000F04BF01460020B1FA1A
:1002C00081F308BF2033A3F10B03B3F120020CDA52
:1002D0000C3208DD02F1140CC2F10C0201FA0CF030
:1002E00021FA02F10CE002F11402D8BFC2F1200C95
:1002F00001FA02F120FA0CFCDCBF41EA0C0190404B
:10030000E41AA2BF01EB0451294330BD6FEA040493
:100310001F3C1CDA0C340EDC04F11404C4F120027E
:1003200020FA04F001FA02F340EA030021FA04F390
:1003300045EA030130BDC4F10C04C4F1200220FAE7
:1003400002F001FA04F340EA0300294630BD21FA25
:1003500004F0294630BD94F0000F83F4801306BFEB
:1003600081F480110134013D4EE77FEA645C18BFDF
:100370007FEA655C29D094EA050F08BF90EA020F76
:1003800005D054EA000C04BF1946104630BD91EA6E
:10039000030F1EBF0021002030BD5FEA545C05D171
:1003A0004000494128BF41F0004130BD14F58004B0
:1003B0003CBF01F5801130BD01F0004545F0FE4124
:1003C00041F470014FF0000030BD7FEA645C1ABF59
:1003D000194610467FEA655C1CBF0B46024650EA90
:1003E000013406BF52EA033591EA030F41F40021BC
:1003F00030BD00BF90F0000F04BF0021704730B542
:100400004FF4806404F132044FF000054FF0000116
:1004100050E700BF90F0000F04BF0021704730B5D7
:100420004FF4806404F1320410F0004548BF4042AC
:100430004FF000013EE700BF42004FEAE2014FEA01
:1004400031014FEA02701FBF12F07F4393F07F4FDC
:1004500081F06051704792F0000F14BF93F07F4F0E
:10046000704730B54FF4607401F0004521F0004151
:1004700020E700BF50EA010208BF704730B54FF0D7
:1004800000050AE050EA010208BF704730B511F0DC
:10049000004502D5404261EB41014FF4806404F114
:1004A00032045FEA915C3FF4DCAE4FF003025FEA96
:1004B000DC0C18BF03325FEADC0C18BF033202EB1E
:1004C000DC02C2F1200300FA03FC20FA02F001FA78
:1004D00003FE40EA0E0021FA02F11444C1E600BF17
:1004E00070B54FF0FF0C4CF4E06C1CEA11541DBFCA
:1004F0001CEA135594EA0C0F95EA0C0F00F0DEF895
:100500002C4481EA030621EA4C5123EA4C5350EA79
:10051000013518BF52EA033541F4801143F48013CA
:1005200038D0A0FB02CE4FF00005E1FB02E506F05B
:100530000042E0FB03E54FF00006E1FB03569CF0B0
:10054000000F18BF4EF0010EA4F1FF04B6F5007FB6
:1005500064F5407404D25FEA4E0E6D4146EB060628
:1005600042EAC62141EA55514FEAC52040EA5E50B1
:100570004FEACE2EB4F1FD0C88BFBCF5E06F1ED85B
:10058000BEF1004F08BF5FEA500E50F1000041EB92
:10059000045170BD06F0004646EA010140EA02003F
:1005A00081EA0301B4EB5C04C2BFD4EB0C0541EA61
:1005B000045170BD41F480114FF0000E013C00F376
:1005C000AB8014F1360FDEBF002001F0004170BD9A
:1005D000C4F10004203C35DA0C341BDC04F11404B3
:1005E000C4F1200500FA05F320FA04F001FA05F23F
:1005F00040EA020001F0004221F0004110EBD3700C
:1006000021FA04F642EB06015EEA430E08BF20EA37
:10061000D37070BDC4F10C04C4F1200500FA04F3DA
:1006200020FA05F001FA04F240EA020001F000416C
:1006300010EBD37041F100015EEA430E08BF20EADF
:10064000D37070BDC4F1200500FA05F24EEA020E27
:1006500020FA04F301FA05F243EA020321FA04F056
:1006600001F0004121FA04F220EA020000EBD3700D
:100670005EEA430E08BF20EAD37070BD94F0000F0D
:100680000FD101F00046400041EB010111F4801F41
:1006900008BF013CF7D041EA060195F0000F18BFF2
:1006A000704703F00046520043EB030313F4801F2E
:1006B00008BF013DF7D043EA0603704794EA0C0FE8
:1006C0000CEA135518BF95EA0C0F0CD050EA4106FE
:1006D00018BF52EA4306D1D181EA030101F000417B
:1006E0004FF0000070BD50EA410606BF10461946A3
:1006F00052EA430619D094EA0C0F02D150EA0136AF
:1007000013D195EA0C0F05D152EA03361CBF1046EF
:1007100019460AD181EA030101F0004141F0FE418E
:1007200041F470014FF0000070BD41F0FE4141F412
:10073000780170BD70B54FF0FF0C4CF4E06C1CEA12
:1007400011541DBF1CEA135594EA0C0F95EA0C0FC7
:1007500000F0A7F8A4EB050481EA030E52EA033582
:100760004FEA013100F088804FEA03334FF08055A3
:1007700045EA131343EA12634FEA022245EA1115D0
:1007800045EA10654FEA00260EF000419D4208BF81
:10079000964244F1FD0404F5407402D25B084FEA2E
:1007A0003202B61A65EB03055B084FEA32024FF4DA
:1007B00080104FF4002CB6EB020E75EB030E22BF37
:1007C000B61A754640EA0C005B084FEA3202B6EBF7
:1007D000020E75EB030E22BFB61A754640EA5C00A6
:1007E0005B084FEA3202B6EB020E75EB030E22BF36
:1007F000B61A754640EA9C005B084FEA3202B6EB37
:10080000020E75EB030E22BFB61A754640EADC00F5
:1008100055EA060E18D04FEA051545EA16754FEA57
:1008200006164FEAC30343EA52734FEAC2025FEA75
:100830001C1CC0D111F4801F0BD141EA00014FF004
:1008400000004FF0004CB6E711F4801F04BF0143D5
:100850000020B4F1FD0C88BFBCF5E06F3FF6AFAEF1
:10086000B5EB030C04BFB6EB020C5FEA500C50F181
:10087000000041EB045170BD0EF0004E4EEA113104
:1008800014EB5C04C2BFD4EB0C0541EA045170BD0B
:1008900041F480114FF0000E013C90E645EA060E4F
:1008A0008DE60CEA135594EA0C0F08BF95EA0C0F7D
:1008B0003FF43BAF94EA0C0F0AD150EA01347FF4C5
:1008C00034AF95EA0C0F7FF425AF104619462CE79C
:1008D00095EA0C0F06D152EA03353FF4FDAE1046FF
:1008E000194622E750EA410618BF52EA43067FF450
:1008F000C5AE50EA41047FF40DAF52EA43057FF4E0
:10090000EBAE12E700000000000000000000000055
:100910004FEA410212F5001215D211D56FF4787327
:10092000B3EB625212D94FEAC12343F0004343EACA
:10093000505311F0004F23FA02F018BF40427047A5
:100940004FF00000704750EA013005D111F000402F
:1009500008BF6FF0004070474FF00000704700BFC5
:100960004FEA4102B2F1E04324BFB3F5001CDCF1D1
:10097000FE5C0DD901F0004C4FEAC0024CEA507009
:10098000B2F1004F40EB830008BF20F00100704738
:1009900011F0804F21D113F13872BCBF01F000403B
:1009A000704741F480114FEA5252C2F11802C2F16D
:1009B000200C10FA0CF320FA02F018BF40F00100EE
:1009C0004FEAC1234FEAD32303FA0CFC40EA0C00A0
:1009D00023FA02F34FEA4303CCE77FEA625307D1DD
:1009E00050EA01331EBF4FF0FE4040F44000704714
:1009F00001F0004040F0FE4040F40000704700BFAE
:100A00004FF0FF3C06E000BF4FF0010C02E000BFDA
:100A10004FF0010C4DF804CD4FEA40024FEA41037C
:100A20007FEA226C18BF7FEA236C11D001B052EA32
:100A3000530C18BF90EA010F58BFB2EB030088BFF8
:100A4000C81738BF6FEAE17018BF40F00100704767
:100A50007FEA226C02D15FEA402C05D17FEA236C49
:100A6000E4D15FEA412CE1D05DF8040B704700BF90
:100A7000844608466146FFE70FB5FFF7C9FF002827
:100A800048BF10F1000F0FBD4DF808EDFFF7F4FF60
:100A90000CBF012000205DF808FB00BF4DF808EDF9
:100AA000FFF7EAFF34BF012000205DF808FB00BF1C
:100AB0004DF808EDFFF7E0FF94BF012000205DF83E
:100AC00008FB00BF4DF808EDFFF7D2FF94BF0120EF
:100AD00000205DF808FB00BF4DF808EDFFF7C8FFE8
:100AE00034BF012000205DF808FB00BF00000000BB
:100AF0004FEA4002B2F1FE4F0FD34FF09E03B3EB2B
:100B000012620DD94FEA002343F0004310F0004F6A
:100B100023FA02F018BF404270474FF000007047C0
:100B200012F1610F01D1420205D110F0004008BF5F
:100B30006FF0004070474FF0000070470000000069
:100B4000704700BF0000000000000000000000002F
:100B5000FEE700BF000000000000000000000000F1
:100B600072B6304880F30988022383F31488BFF3F8
:100B70006F8F2D4B2D4CA3420BD2DA434FF05531E2
:100B8000224422F0030204321A4443F8041B934225
:100B9000FBD1274B83420BD24FF05531254AD21A55
:100BA00022F0030204321A4443F8041B9342FBD19F
:100BB00001F046FF204B214A93420CD2D843104407
:100BC00020F0030004301E4A184452F8041B43F876
:100BD000041B8342F9D11B4B1B4883420AD2DA43E0
:100BE0000021024422F0030204321A4443F8041B99
:100BF0009A42FBD1154D164CFFF7A2FFAC4204D22E
:100C000054F8043B9847AC42FAD3124D124CFFF70C
:100C10005FFAAC4204D254F8043B9847AC42FAD392
:100C2000FFF796FF00040010000000100002001003
:100C300000020010FF030010000400100404001064
:100C4000402E000008040010F80B0010CC0000003B
:100C5000CC000000CC000000CC0000000000000030
:100C6000FEE700BF000000000000000000000000E0
:100C700072B6FEE700000000000000000000000067
:100C800000F09EFA00DF00BF00000000000000003E
:100C9000EFF30983203383F30988002383F311885A
:100CA000704700BF000000000000000000000000CE
:100CB000002108B5094A0A4B07209960DA60202113
:100CC00000F09EF84FF400610A2000F099F8BDE8AA
:100CD000084080210B2000F093B800BF0004FA0503
:100CE00000ED00E000000000000000000000000037
:100CF000402383F31188174B5B6813F4006319D00A
:100D0000EFF30983A3F1200282F309884FF0807288
:100D1000114943F8042C8A69D07F70B10868916842
:100D200082688A4294BF002201227AB10B4A43F8BA
:100D3000082C704783F311887047086891688268AF
:100D40008A4234BF00220122002AEFD1044A43F82C
:100D5000082C704700ED00E020050010810C000019
:100D6000840C0000000000000000000000000000F3
:100D700008B5402383F3118800F09AF8002383F329
:100D80001188BDE80840FFF7B3BF00BF00000000B6
:100D90002DE9F04FC1F80CD0D0F80CD0BDE8F08FA1
:100DA000002383F311882846A04700F0B1FA70476A
:100DB000F0B4FF27012620F0030202F1604202F5A1
:100DC0006142C400D2F8005304F018044309A7405C
:100DD0009B00A14025EA070503F1604300F01F00D6
:100DE00006FA00F0294303F56143C2F80013F0BC92
:100DF000C3F8800118607047000000000000000088
:100E000010B4FF2420F0030303F1604303F56D43A6
:100E100000F00300C0009A698440814022EA040087
:100E20000843986110BC70470000000000000000FB
:100E3000024B034A9B699A61FEE700BF2005001040
:100E4000902C0000000000000000000000000000E6
:100E500000B583B0FFF72CFF00F0DAF800F058F887
:100E600000F036FC00F06CFC40210C4800F0B8F9B2
:100E700001220B4902778861002383F3118862B64F
:100E800018468B69074999610090074BC0210748B4
:100E900000F0CEF903B05DF804FB00BFC8040010F9
:100EA00020050010A02C0000310E000008040010E6
:100EB00070B5134B9B69DA7F0AB1013ADA771A6A87
:100EC000104C01321A62E36822680133A242E360E7
:100ED00014D09668013E966086B91168D568216085
:100EE000D66000234C6083F311881069A847402323
:100EF00083F3118822689368002BEED070BD00BF89
:100F00002005001010050010000000000000000087
:100F10004FF0FF310022034B99605B601B60DA6089
:100F2000704700BF10050010000000000000000026
:100F300010B40C4C03612368C2609A68914204D9D2
:100F40001B68891A9A688A42FAD35A68A3420360D6
:100F5000426058601060816002D09A68511A9960AE
:100F600010BC7047100500100000000000000000D9
:100F7000074A0368934203D09A6881680A449A60DA
:100F800000214268136003685A60C160704700BF67
:100F9000100500100000000000000000000000002C
:100FA000402383F31188037F0D2B11D8DFE803F072
:100FB00026101007100B101010101010100B426AA2
:100FC00093680133936090E80C001A6002685360E4
:100FD00010B400234FF0FF3481680A4A446203775B
:100FE000126893688B42FBD2516800230260416013
:100FF0005060086083F3118810BC7047002383F3AE
:10100000118870472005001000000000000000005B
:101010000022034B9A605B601B605B611B61704741
:10102000200500100000000000000000000000008B
:10103000002210B404468168064B02771B689A6848
:101040008A42FBD25A682046236062605C6014606A
:1010500010BC7047200500100000000000000000D8
:1010600030B414240125074B99691A680877CC77A6
:1010700014681046636015771C6030BC9A61FFF7F6
:1010800087BE00BF20050010000000000000000027
:1010900030B54B1C87B012D005460C4C01A8A36993
:1010A0000B4AFFF745FF2846FFF7DAFF049B13B111
:1010B00001A8FFF75DFFA369586A07B030BDFFF7CD
:1010C000CFFF024CA369586A07B030BD200500105D
:1010D000A10F000000000000000000000000000060
:1010E000144BF0B49D69416204468168A86881424E
:1010F0000CD8002222771B689A689142FBD95A6863
:10110000236062605C601460F0BC704700211A4686
:101110002977126891688842FBD9012756682946C9
:1011200085E8440055603560277720469C61F0BC17
:10113000FFF72EBE20050010000000000000000098
:101140000121F0B4142700260C4A10689469056840
:1011500003466A600177A16815609061E77726779A
:1011600000E01B689A688A42FBD25A6821462360D5
:1011700062605C601460F0BCFFF70ABE20050010DE
:10118000012170B400260C4A106894690568034672
:101190006A600177A16815609061267700E01B689E
:1011A0009A688A42FBD85A682146236062605C6074
:1011B000146070BCFFF7ECBD2005001000000000BB
:1011C000034B9B69DB7F0BB1FFF7DABFFFF7B8BFBB
:1011D00020050010000000000000000000000000DA
:1011E000F0B500224FF0020E142701260C4C81604E
:1011F000656901640461456100F12C01606100F1E1
:10120000280480F81CE0C77786774277C263826340
:1012100002628261286184620163C162F0BD00BF25
:101220002005001000000000000000000000000089
:101230002DE9F0421E460446402383F31188002521
:101240004FF0140C4FF0010E4FF0020924394718EB
:10125000C76046500699134B796013495E6939623D
:101260008260026400F1280700F12C0203614661EC
:1012700080F81C90586180F81FC080F81EE0457708
:10128000C5638563056285612946306187620263B3
:10129000C262FFF725FF2B4683F311882046BDE885
:1012A000F08200BF20050010A10D0000000000002A
:1012B00008B50146402383F311880620FFF7E8FEB6
:1012C000002383F3118808BD000000000000000027
:1012D00038B50E4B9C692546606255F8280FA84228
:1012E00006D00368A362FFF7A3FEA06AA842F8D164
:1012F000637F9B0704D1226963691A612269536184
:101300000E20BDE83840FFF7ABBE00BF200500103F
:10131000402383F31188FFF7DBBF00BF000000000C
:101320004060006081607047000000000000000025
:1013300003468068421E002A9A6001DB0020704745
:1013400010B459B1084A0320926953625C6882E87C
:1013500018005A60226010BCFFF79ABE986010BC5B
:101360004FF0FF30704700BF200500100000000064
:1013700083680133002B836000DD704710B40246A0
:10138000002403681968184611604A605C6210BC4A
:10139000FFF74EBE0000000000000000000000004B
:1013A0000023406000608360704700BF00000000C1
:1013B00008B5836B027F1943082A81630AD0092A82
:1013C00000D008BD436A8B43FBD1FFF731FE0023F9
:1013D000436208BD436A1942F7D108BD000000000E
:1013E00070B50468A0420BD005460E46E368A168BC
:1013F0003343E3606068FFF7DBFF2468A542F5D163
:1014000070BD00BF000000000000000000000000F0
:1014100069B10246074B10B49B690D205A625468AB
:1014200083E814005360236010BCFFF731BE4FF017
:10143000FF30704720050010000000000000000091
:1014400030B40025029C0A44856004620261406059
:10145000006041618161C160C36130BC704700BF01
:10146000836942699A4283681ED010B50133541CC7
:10147000836044611170426903699A420DD2026827
:1014800082420FD003461168104619604B60FFF787
:10149000CFFD00234362184610BD0268C368824234
:1014A0004361EFD1002010BD002BDED06FF00300B0
:1014B000704700BF000000000000000000000000B6
:1014C00070B540230E46044683F31188C3693BB1CF
:1014D000984705E031462046FFF79AFF00280FDBCA
:1014E000A568002DF6D0A2692169531C8B42A36127
:1014F00005F1FF3528BFE368A560107828BFA36118
:10150000002383F3118870BD00000000000000007C
:101510002DE9F0471E46044689469246D0F81C80C5
:10152000402383F311880027B8F1000F07D020462D
:10153000C04704E031462046FFF76AFFD0B9A568EE
:10154000002DF7D0A369013D5A1CA261A5601B784C
:1015500009F8013B2369A2699A4224BFE368A361A9
:10156000002383F311880137BA4506D0402383F363
:101570001188D9E72B4683F311883846BDE8F087F8
:1015800030B4029C8D180561046240600060826086
:1015900041618161C160C36130BC704700000000DF
:1015A000F8B504460F461646402383F3118805E03C
:1015B00031462046FFF72CFF002817DBA568002DD9
:1015C000F6D06369013D5A1C6261A5601F702369F2
:1015D00062699A4224BFE3686361E3690BB1204604
:1015E0009847002383F311881846F8BD2B4683F3F0
:1015F0001188F8BD0000000000000000000000009D
:1016000038B5826943699342836818D00569511CD3
:10161000013383608161A94214780DD2026882424D
:1016200008D003461168104619604B60FFF700FDB3
:1016300000234362204638BDC3688361EEE7002B78
:10164000E4D06FF0020038BD000000000000000090
:101650002DE9F84F9A4604460E461746D0F81C90DE
:10166000402383F311884FF00008A56806F1010BB1
:101670006A1E0DB36369A2605A1C626132781A70E7
:10168000236962699A4224BFE3686361B9F1000F7C
:1016900001D02046C847002383F31188013F08F199
:1016A000010812D0402383F311885E46A56806F135
:1016B000010B6A1E002DDDD151462046FFF7A8FE22
:1016C0000028D2D02B4683F311884046BDE8F88F1E
:1016D000054A064B0648074922F0070223F0070394
:1016E00002600B60704700BFFF0B0010008000100D
:1016F000400500103C050010000000000000000044
:1017000010B4402383F31188094C0A4B22681968EE
:10171000C31D23F00703891A8B429DBF9B182360CA
:1017200010460020002383F3118810BC704700BFCF
:10173000400500103C050010000000000000000003
:101740000022044B044903F110009A60DA6019602A
:10175000FFF726BE4805001001170000000000003A
:101760000EB42DE9F04F05468AB013AB53F804AB25
:1017700003939AF800100AF1010361B125290FD0F3
:101780009A462A682846926890479AF800100AF10B
:1017900001030029F2D10AB0BDE8F04F03B0704751
:1017A0009AF801202D2A03BF9AF802200AF10203B9
:1017B0004FF001084FF000082E2A00F0DB81302A9C
:1017C00000F0D88120274FF0000E039E7446591C6C
:1017D00007E04FF0010E3378043611F8012B03EBCC
:1017E0004004A2F13003DBB2092B8A4604EB8400EB
:1017F000F3D92A2AEDD0BEF1000F40F08D822E2AB7
:1018000000F0BC81002102F0DF034C2B00F03A8194
:10181000A2F14103A2F14400DBB2342800F22A8194
:10182000DFE810F011022801280128012801110227
:10183000280128012801280128010B02280128017C
:10184000280128012801E001280128010E022801B1
:101850002801280128012801280128012801280140
:101860002801100111022801850028012801110218
:10187000280128012801280128010B02280128013C
:10188000280135002801E001280128010E02039BF0
:101890001E6804330393002E00F039823378002948
:1018A00000F02382002B00F025820139B64601E0CA
:1018B000013903D41EF8013F002BF9D1AEEB060E1F
:1018C000B4EB0E040EF1FF394FF0200700F1AF80AA
:1018D000B8F1000F40F0C980C4F10008002C00F0FE
:1018E000698131782D2900F0728144462B68394690
:1018F0009B68284698470134F8D1B9F1000FFFF6EC
:1019000038AF2B6809F1FF399B6816F8011B284690
:101910009847B9F1FF3FF4D1002C3FF42AAF2B6870
:1019200039469B6828469847013CF8D121E7039B3C
:10193000073323F0070303F10802D3E90001039200
:10194000FFF70EF800218346FFF7A8F8002840F0C3
:10195000D58104AEB1465846FEF76EFDCDE90001D3
:101960005846FFF7C5F809F10B0E0246F446D24B74
:10197000A3FB0213DB08194603EB8303A2EB43032B
:101980003033DBB20CF8013D0A460029EFD1AEEB53
:101990000C0E61464A4609EB0E0C01E011F8013FBE
:1019A00002F8013B6245F9D12E230EF1FF3E137080
:1019B000F144FEF72FFD02460B46DDE90001FEF77C
:1019C000DBFBBBA3D3E90023FEF78AFDFEF7A0FFF4
:1019D00009F10D0C09F10202614609F1080900E064
:1019E0005946B54B01F1FF3BA3FB00E3DB089E46E4
:1019F00003EB8303A0EB43033033DBB2CB4501F8A9
:101A0000013C7046ECD1ACEB090C1046E14401E01E
:101A100011F8013B894500F8013BF9D16244A2EB82
:101A2000060EB4EB0E040EF1FF397FF551AFB8F19D
:101A3000000F40F0C580B9F1000FA8BF4446BFF6C3
:101A400060AF96E64FF0010E4FF000092027039B90
:101A50000AAE1A680433039306F8182DB4EB0E048B
:101A6000E5D4B8F1000F3FF437AFB9F1000FBFF67E
:101A700048AF51E70AAE4FF0010E4FF0000906F8EB
:101A8000182DEBE79AF8003013B11A460AF1010A53
:101A9000A2F14403342BEDD801A050F823F000BF8D
:101AA000BD1C0000751A0000751A0000751A0000B0
:101AB000751A0000BD1C0000751A0000751A0000A0
:101AC000751A0000751A0000751A0000A31C0000AA
:101AD000751A0000751A0000751A0000751A0000CA
:101AE000751A0000E51C0000751A0000751A000048
:101AF000DF1C0000751A0000751A0000751A00003E
:101B0000751A0000751A0000751A0000751A000099
:101B1000751A0000751A0000751A0000451A0000B9
:101B2000BD1C0000751A00002F190000751A000076
:101B3000751A0000BD1C0000751A0000751A00001F
:101B4000751A0000751A0000751A0000A31C000029
:101B5000751A0000751A0000751A00008F18000031
:101B6000751A0000E51C0000751A0000751A0000C7
:101B7000DF1C00005A783027013324E64FF0000EB6
:101B8000039E714605E04FF0010E3378043603EBF7
:101B900040011AF8012B01EB8100A2F13003DBB206
:101BA000092BF4D92A2AEED0BEF1000F3FF42BAE58
:101BB000039628E6B9F1000F4446BFF6A2AEABE6A5
:101BC000B9F1000FA8BF0024BFF69BAED1E5302FBE
:101BD0007FF48BAE2B6828469B689847013609F145
:101BE000FF3982E64FF00A0C192B5CD9039B191DB3
:101BF0001A6803910DF11B0E714600E00146B2FB1D
:101C0000FCF60CFB162202F13003392BC8BF02F19F
:101C10003703DBB201F8013C481E3246002EEDD1FD
:101C200004AEAEEB000E3246704401E011F8013B09
:101C3000884202F8013BF9D1F3E64FF0080CD3E7F4
:101C40004FF0100CD0E7192B38D9039BD3F800C004
:101C50001A1DBCF1000F039238DB04AE3246134666
:101C600002F10B0E714662469C46134BA3FB020326
:101C7000DB08184603EB8303A2EB43033033DBB2EC
:101C800001F8013D02460028EFD1AEEB01006246AB
:101C9000604401E011F8013F02F8013B8242F9D1B2
:101CA000BDE64FF0080C039B1A1D03921A68A1E7CA
:101CB00000000000006AF840CDCCCCCC039BD3F8E8
:101CC00000C01A1DBCF1000F0392C6DA2D23CCF11F
:101CD000000C8DF810300DF1110204AEBFE74FF08B
:101CE000100CE0E74FF00A0CDDE747F6FE71002B21
:101CF0007FF4DCAD4FF0FF392027E9E52D230BF110
:101D0000004B8DF810300DF1110904AE23E609B92E
:101D100047F6FF71014EC8E5039670E5C02C000040
:101D200008B500F03DF9084800F0F2FA00F010F8AC
:101D300000F026F800F09CF800F0EAF800F020F936
:101D4000BDE8084000F084BE002D00000000000047
:101D500000F036BA000000000000000000000000A3
:101D600000230122436002708360C360036143610A
:101D70001830FFF715BB00BF000000000000000096
:101D800000F0AEBD000000000000000000000000F8
:101D900038B5012300250446037045602946083004
:101DA000FFF7BEFA294604F11400FFF7B9FA04F16F
:101DB000200504F1240004F1280104F12C0204F1AF
:101DC000300325626062A162E262236338BD00BF16
:101DD00038B504460D46402383F311880378022B5F
:101DE00006D101210620FFF753F92378022BF8D002
:101DF000012B03D0002383F3118838BD6560204692
:101E000000F07EFD03232370002383F3118838BD87
:101E10002DE9F0411E4604460F469046402383F3C9
:101E2000118800F108052378042B04D03946204698
:101E300000F09EFD50B931462846FFF779FA002898
:101E4000F1D0002383F31188BDE8F0814246394682
:101E5000204600F0B5FD002383F311881846BDE845
:101E6000F08100BF00000000000000000000000042
:101E700000F01EBA0000000000000000000000009A
:101E80000122002302704360704700BF0000000081
:101E90000C30FFF73DBB00BF000000000000000059
:101EA0000C304FF0FF33FFF733BB00BF00000000E2
:101EB0003030FFF7CDBB00BF000000000000000085
:101EC00030304FF0FF33FFF7C3BB00BF000000000E
:101ED0000C30FFF7F5BA00BF000000000000000062
:101EE0000C304FF0FF31FFF7EBBA00BF00000000ED
:101EF0003030FFF755BB00BF0000000000000000BD
:101F000030304FF0FF32FFF74BBB00BF0000000046
:101F100000F0FEBA00000000000000000000000019
:101F200070B50446012615460C4B82B0009040F86F
:101F3000043B60600B4604F10C0004F1540126726E
:101F40001022FFF77DFA00942B4604F1640104F19E
:101F500030001022FFF714FB02B070BDD02C00003F
:101F600010B54023044683F3118800F0F1FA0222F1
:101F70000023227283F3118810BD00BF000000000F
:101F800000F0DEBB000000000000000000000000C8
:101F9000002301224360027083600C30FFF700BA17
:101FA00010B504210B20FEF72BFF07220020084B61
:101FB000084C09495C6098601A60CB68074A43F096
:101FC0008073CB60136843F00103136010BD00BF42
:101FD00010E000E069810100F0ED00E0001000E099
:101FE0001F4BF0B55520AA244FF0020E00272426DF
:101FF00001251A461968DFF870C021F4704141F4D8
:10200000804119601749C3F8A8C1C3F8AC11C3F8DF
:1020100004E1C3F80C71C3F88460C3F88C40C3F8C2
:102020008C00C3F88050C3F88C40C3F88C00D2F801
:1020300088305B01FBD50324AA2055230849C2F848
:102040008040C2F88C00C2F88C30D1F8883013F090
:10205000407FFAD04FF40243C1F8C430F0BD00BF56
:1020600000C00F40555455545551515500000000C3
:10207000F8B54F4E4F4D326B2C6B12F47F432CD082
:102080002B692BB30021AA6A9E68136823F0E063D2
:1020900023F480331360D1604EB1052301212B70EE
:1020A0002846B0472B78052B04BF02232B70002253
:1020B00040232A6183F311886B6933B14FF0FF31FC
:1020C000184659626A61FEF7B3FF002383F3118853
:1020D0002C63BDE8F840FEF70BBE0127A968D2B219
:1020E00007FA03F0104205D0181D56F8200041F8F9
:1020F000240001340133082BF2D1EB6AB4EB530F07
:1021000014D09C42E4D12B691978C9B15C68002CC9
:10211000DED0EA68012A42D958885208AB6891009B
:1021200000FB01312348A0470024D1E72A69566803
:10213000002EE6D0EA681F485208B047EB6AE0E795
:10214000A86A5C68026822F0E06222F480320260D1
:10215000C160FCB10421EA682970012A24D9598898
:102160005208AB68900000FB01311248A0472B7861
:10217000042B0FD0402383F311886B692BB100220D
:1021800018465A626A61FEF753FF002383F31188F1
:102190001C469DE7022200232A702B61EAE7A9680A
:1021A0000448A047002493E7A9680248A047DEE757
:1021B000004003406805001000000000000000001F
:1021C00010B5064C2046FFF7CBFD054B6021A362FE
:1021D0001620BDE81040FEF7EBBD00BF68050010FB
:1021E000004003400000000000000000000000006C
:1021F00001210A4B10B51878DA680428116005D15E
:10220000002002241C701160506150605B6803481C
:102210005B689847BDE81040FEF76ABD9C0500105A
:1022200001210A4B10B51878DA680428116005D12D
:10223000002002241C701160506150605B680348EC
:102240005B689847BDE81040FEF752BDAC05001032
:1022500001210A4B10B51878DA680428116005D1FD
:10226000002002241C701160506150605B680348BC
:102270005B689847BDE81040FEF73ABDBC0500100A
:1022800001210A4B10B51878DA680428116005D1CD
:10229000002002241C701160506150605B6803488C
:1022A0005B689847BDE81040FEF722BDCC050010E2
:1022B0004FF0402208B50C4B1846DA60FFF7E0FDFE
:1022C0000A4B0B4A1846DA60FFF7DAFD094B0A4A57
:1022D0001846DA60FFF7D4FD084B094A1846DA6061
:1022E000BDE80840FFF7CCBD9C050010AC05001010
:1022F00000800040BC05001000000940CC05001023
:102300000040094000000000000000000000000044
:102310000023F0B442680F4E0F4D3260C2680F4C7C
:102320002A6042690E492260C7690E4A0F60476AF7
:10233000176033612B6123610B6113610368736163
:1023400083686B610369636183694B61036A5361ED
:10235000F0BC704700C0092020C0092040C00920FF
:1023600060C0092080C009200000000000000000BB
:102370002DE9F0410746446F00F13006A36803F0F1
:102380000F03013B0B2B6AD8DFE803F06748692293
:102390006906696969696922636913F0020F14BFEC
:1023A000802100215A0748BF41F020011D0748BF86
:1023B00041F04001D80648BF41F40071402383F347
:1023C0001188381DFFF70CF8002383F31188D5E737
:1023D000402383F311887B69002B43D0002383F3D0
:1023E00011886369DA07C9D507F10C0507F10408FC
:1023F00005E0002383F311886369DB07BED5402322
:1024000083F3118821682846C9B2FFF729F800280C
:10241000EFDA80214046FEF7E3FFEAE7102502E00D
:10242000013D2060AAD0402383F311883046FFF796
:10243000E7F8002383F311889842F1DA62684023B9
:1024400022F00202626083F311880821381DFEF732
:10245000C7FF002383F3118890E7BDE8F08123686C
:1024600023688BE704217818FEF7BAFFB6E700BFB0
:10247000F8B5456F6B699B060BD50746102400F134
:1024800030063046FFF7BCF8002807DB013C286027
:10249000F7D16B6843F002036B60F8BD381D08216B
:1024A000BDE8F840FEF79CBF0000000000000000FF
:1024B0000148FFF7DDBF00BF540600100000000018
:1024C0000148FFF7D5BF00BFDC0500100000000089
:1024D00008B50348FFF74CFFBDE80840FEF708BC0D
:1024E000DC050010000000000000000000000000FB
:1024F00008B50348FFF73CFFBDE80840FEF7F8BB0E
:102500005406001000000000000000000000000061
:1025100038B5084D084A28460021084CFFF700FD51
:10252000074B2046074A00216B67FFF7F9FC064B73
:10253000636738BDDC050010C1240000540600109C
:1025400000C00040B12400000080094000000000ED
:10255000F8B5294D037A002918BF0D46012B32D05A
:10256000264A436F904227D0254A904224D000202B
:10257000024680264FF0000E10270524696841EAC4
:10258000060CC3F80CC01A605860AA68D96042F003
:1025900007029A60C3F820E09F621E635C60F8BD8A
:1025A000184A6021D2F8C430052043F00803C2F86D
:1025B000C430FEF7FDFB636F2968134A0901B2FBC3
:1025C000F1F2100AD5E70D4B04469842E8D00C4BC7
:1025D000984203D00020636F0246CAE7094A60218F
:1025E000D2F8C430072043F08073C2F8C430FEF73D
:1025F000DFFB636FE0E700BFF02C0000DC0500109C
:102600005406001000C00F40AA88E1050000000039
:1026100070B4C569816AEB6808290C4628BF082494
:102620009A071BD5D4B14FF0FF3612E02A6802F0AA
:102630000F02072A8CBF33F8022B13F8012BAA6074
:10264000C362EB6801399B07816204F1FF3405D551
:1026500024B1C36A002BE9D1AE60F2E770BC7047C9
:1026600038B5C5690446EB69DA073FD403232B620A
:102670000EE02A6802F00F02072AAA688CBF23F82E
:10268000022B03F8012B6362236A013B23625BB1D7
:10269000EB685B0722D5636A002BEAD1AB68236A3B
:1026A000013B2362002BF3D162686B61136803B3B3
:1026B00004222046227098472378042B19D0402307
:1026C00083F31188A3682BB100221846A2605A62D6
:1026D000FEF7AEFC002383F3118838BD2046FFF7D8
:1026E00097FFA36A0BB907236B6138BDFEF7C0FAE9
:1026F000BCE702232370E2E70000000000000000B6
:1027000008B50348FFF7ACFFBDE80840FEF7F0BA94
:10271000CC060010000000000000000000000000D7
:1027200008B50348FFF79CFFBDE80840FEF7E0BA94
:10273000FC06001000000000000000000000000087
:1027400038B5064D064C2846FFF722FC054B2046BF
:10275000EB61FFF71DFC044BE36138BDCC060010B4
:10276000FC0600100080084000000340000000004C
:1027700070B5414B82B0DB680193019BC3F30A0340
:1027800063B1019B13F0A40F58D1019B13F0090F03
:1027900027D140F20263019A1A4203D1FEF7A8FA48
:1027A00002B070BD354C636B9B685B07F6D5402368
:1027B00083F311882369002BB8BF04F1080505DAFB
:1027C0002846FEF7D5FD2369002BF9DB01212C48B3
:1027D000FEF706FE002383F31188FEF789FA02B0A4
:1027E00070BD264C019E616B40230A6922F00102F4
:1027F0000A6183F31188E369002BB8BF04F1140563
:1028000005DA2846FEF7B4FDE369002BF9DB012168
:102810001C48FEF7E5FD002383F311883207B8D585
:102820000821626B4023516083F311881021164800
:10283000FEF7D6FD002383F31188AAE7019B190C4C
:1028400009045D0748BF41F001019C0648BF41F003
:102850000201180648BF41F00401402383F31188A8
:102860000948FEF7BDFD002383F31188019B13F097
:10287000090F8ED0B5E700BF004004402C070010C0
:10288000500700104C070010540700100000000013
:1028900038B5104BDB68DB0617D5022403230E483E
:1028A0000E49456B0370C1F810412A68402322F09D
:1028B00010022A60C1F8144183F3118800213030DE
:1028C000FEF78EFD002383F31188BDE83840FEF744
:1028D0000FBA00BF004004402C07001000C00F409A
:1028E00010B5034C2046FFF753FA024B636310BD4B
:1028F0002C07001000400440000000000000000011
:10290000F8B5174B0446984222D002220127042032
:1029100040F2AF61636B134E65681F6032606D6893
:1029200022705D61586019611A694FF4B07142F00C
:1029300010021A612220FEF73BFA6268636B12688C
:102940004FF4B0711A601920BDE8F840FEF730BAB4
:10295000054AD2F8C43043F40053C2F8C430D4E777
:102960002C07001000C0034000C00F400000000012
:1029700003291CD8DFE801F0110C0702436BD8696A
:10298000C0F380407047436BD869C0F38020704724
:10299000436BD869C0F380007047436BD86900F07F
:1029A000043020F08060003018BF01207047002004
:1029B000704700BF000000000000000000000000A1
:1029C00070B421BB446BE3695D0728D5212604F16F
:1029D00030001178C1F30013C1F340159B0743EA9F
:1029E000C57301F00F0143EA0143036013789B06AE
:1029F0004BBF53689388C3F31C03C3F30A034360BC
:102A000093688360D368C360666070BC70470229B6
:102A10000DD0032910D0012910D070BC7047580583
:102A200006D45903F9D5812604F15000D1E7446B4F
:102A300004F140004126CCE7446BF4E7446BC5E762
:102A4000FFF7CEBA00000000000000000000000008
:102A50001A4B1A6842F050021A601A6C42F0A00237
:102A60001A641A6942F400321A611A6D42F4003293
:102A70001A651A6942F400221A611A6D42F40022A2
:102A80001A655A6842F470725A605A6C42F42072A5
:102A90005A649A6E42F4C0129A661A6842F00502AD
:102AA0001A601A6C42F00A021A641A6842F4206230
:102AB0001A601A6C42F420621A64704700C0024027
:102AC000184908B50C46184B184A194D90691A68F0
:102AD00085611A60186C174A40F4400018645078F9
:102AE00040F008005070D868D860D86C40F440605E
:102AF000D8648B7843F020038B70537E43F0080337
:102B00005376A37E40F6B83043F02003A376FEF759
:102B1000CFFBA37F40F6B83043F02003A377FEF746
:102B2000C7FBEEE720C0092000C0024020050010CE
:102B3000202E000000C0092000000000000000005E
:102B4000104B4FF47A751E4680B50F4A0F49104C52
:102B500088691169846111611A780E4F42F001028F
:102B60000D4C1A70736983F0010373613B6805FBB8
:102B700003F00138A4FB003080090130FEF798FB18
:102B8000F0E700BF40C0092000C00240200500104F
:102B9000102E000000040010D34D62100000000051
:102BA00008202021F0B50024012789B09DF80020DD
:102BB0009DF810302A4D02F0CF0203F0CF03D5F874
:102BC00018E0BDF80460BDF8145060F3030260F330
:102BD0000303244861F30A0561F30A06CEF81800DE
:102BE00021492248ADF814508DF800208DF810309E
:102BF000ADF804600297039406940794FEF7B0FDC5
:102C00001B4D4FF47A60FEF753FB6A4600216423A4
:102C10002846FFF7FDF817492246B0B91649134870
:102C20000134FEF79DFD4FF47A60FEF741FB002171
:102C3000642304AA2846FFF7EBF8104948B9224656
:102C40000A480134FEF78CFDDBE70848FEF788FDF3
:102C5000E9E70B4905482246FEF782FDD1E700BFB0
:102C600020050010602D0000702D0000540600109B
:102C70002C070010AC2D00008C2D0000CC2D000086
:102C8000EC2D00000000000000000000000000002B
:102C900069646C6500000000000000000000000096
:102CA0006D61696E0016C011040448080C101418F8
:102CB000001C1D1E1F20000000000000000000007E
:102CC000286E756C6C2900000000000000000000F8
:102CD000C11E0000A11E0000011F0000E11E000037
:102CE000F11E0000D11E0000B11E0000911E000068
:102CF000009600000300000000000000000000003B
:102D00000000000000004010000000000000000073
:102D100000000000000000000000000000000000B3
:102D200000000000000000000000000000000000A3
:102D3000000000001B001300000000000000000065
:102D40004465627567205669612053657269616CDC
:102D5000205573696E67205541525432200D0A0088
:102D600043414E5F53656E645F4D73670000000022
:102D7000546872656164202D2043414E2054726175
:102D80006E736D69747465720D0A00005375636328
:102D90006573732053656E742043414E206D7367D5
:102DA0002031203A2025640D0A0000004661696C3C
:102DB00065642053656E742043414E206D73672017
:102DC00031203A2025640D0A00000000537563632A
:102DD0006573732053656E742043414E206D736795
:102DE0002032203A2025640D0A0000004661696CFB
:102DF00065642053656E742043414E206D736720D7
:102E000032203A2025640D0A000000000000000076
:102E1000426C696E6B5F646562756700000000005C
:102E2000544553545F494E4A5F4750494F00000094
:0C2E300000C201000300000000000000D0
:042E4000F401000099
:0400000300000B618D
:00000001FF
