:1000000000020010610100006102000061020000B6
:100010006102000061020000610200006102000054
:100020006102000061020000610200008102000024
:100030006102000061020000610200006103000033
:100040006102000081130000B1130000E113000001
:10005000111400006116000061020000811600000A
:100060006102000061020000610200006102000004
:1000700061020000610200006102000061020000F4
:1000800061020000610200006102000061020000E4
:1000900061020000610200006102000061020000D4
:1000A00061020000610200006102000061020000C4
:1000B00061020000610200006102000061020000B4
:0C00C0006102000061020000610200000B
:1000D00070B5002482B001F053F800F0B1F94FF48C
:1000E0007A7000F0DDFB1049104801F0D1F810499A
:1000F0000E4800F0EDFD4FF47A7000F0D1FB009453
:100100000C4B45224FF498710B4800F089FB0B4EC5
:10011000064D22462846314600F0DAFD4FF47A704B
:10012000013400F0BDFBF4E72019000018060010B0
:10013000F0180000011800009006001010190000CF
:10014000704700BF00000000000000000000000039
:10015000FEE700BF000000000000000000000000FB
:1001600072B6304880F30988022383F31488BFF302
:100170006F8F2D4B2D4CA3420BD2DA434FF05531EC
:10018000224422F0030204321A4443F8041B93422F
:10019000FBD1274B83420BD24FF05531254AD21A5F
:1001A00022F0030204321A4443F8041B9342FBD1A9
:1001B00001F0F6FA204B214A93420CD2D843104466
:1001C00020F0030004301E4A184452F8041B43F880
:1001D000041B8342F9D11B4B1B4883420AD2DA43EA
:1001E0000021024422F0030204321A4443F8041BA3
:1001F0009A42FBD1154D164CFFF7A2FFAC4204D238
:1002000054F8043B9847AC42FAD3124D124CFFF716
:100210005FFFAC4204D254F8043B9847AC42FAD397
:10022000FFF796FF0004001000000010000200100D
:1002300000020010FF030010000400100004001072
:100240003019000000040010C0070010CC000000AE
:10025000CC000000CC000000CC000000000000003A
:10026000FEE700BF000000000000000000000000EA
:1002700000F09EFA00DF00BF000000000000000058
:10028000EFF30983203383F30988002383F3118874
:10029000704700BF000000000000000000000000E8
:1002A000002108B5094A0A4B07209960DA6020212D
:1002B00000F09EF84FF400610A2000F099F8BDE8C4
:1002C000084080210B2000F093B800BF0004FA051D
:1002D00000ED00E000000000000000000000000051
:1002E000402383F31188174B5B6813F4006319D024
:1002F000EFF30983A3F1200282F309884FF08072A3
:10030000114943F8042C8A69D07F70B1086891685C
:1003100082688A4294BF002201227AB10B4A43F8D4
:10032000082C704783F311887047086891688268C9
:100330008A4234BF00220122002AEFD1044A43F846
:10034000082C704700ED00E0180500107102000055
:100350007402000000000000000000000000000027
:1003600008B5402383F3118800F09AF8002383F343
:100370001188BDE80840FFF7B3BF00BF00000000D0
:100380002DE9F04FC1F80CD0D0F80CD0BDE8F08FBB
:10039000002383F311882846A04700F0B1FA704784
:1003A000F0B4FF27012620F0030202F1604202F5BB
:1003B0006142C400D2F8005304F018044309A74076
:1003C0009B00A14025EA070503F1604300F01F00F0
:1003D00006FA00F0294303F56143C2F80013F0BCAC
:1003E000C3F88001186070470000000000000000A2
:1003F00010B4FF2420F0030303F1604303F56D43C1
:1004000000F00300C0009A698440814022EA0400A1
:100410000843986110BC7047000000000000000015
:10042000024B034A9B699A61FEE700BF1805001062
:100430004018000000000000000000000000000064
:1004400000B583B0FFF72CFF00F0DAF800F058F8A1
:1004500000F0F6FB00F02CFC40210C4800F0B8F94D
:1004600001220B4902778861002383F3118862B669
:1004700018468B69074999610090074BC0210748CE
:1004800000F0CEF903B05DF804FB00BFC00400101B
:10049000180500105018000021040000000400108E
:1004A00070B5134B9B69DA7F0AB1013ADA771A6AA1
:1004B000104C01321A62E36822680133A242E36001
:1004C00014D09668013E966086B91168D56821609F
:1004D000D66000234C6083F311881069A84740233D
:1004E00083F3118822689368002BEED070BD00BFA3
:1004F00018050010080500100000000000000000B2
:100500004FF0FF310022034B99605B601B60DA60A3
:10051000704700BF08050010000000000000000048
:1005200010B40C4C03612368C2609A68914204D9EC
:100530001B68891A9A688A42FAD35A68A3420360F0
:10054000426058601060816002D09A68511A9960C8
:1005500010BC7047080500100000000000000000FB
:10056000074A0368934203D09A6881680A449A60F4
:1005700000214268136003685A60C160704700BF81
:10058000080500100000000000000000000000004E
:10059000402383F31188037F0D2B11D8DFE803F08C
:1005A00026101007100B101010101010100B426ABC
:1005B00093680133936090E80C001A6002685360FE
:1005C00010B400234FF0FF3481680A4A4462037775
:1005D000126893688B42FBD251680023026041602D
:1005E0005060086083F3118810BC7047002383F3C8
:1005F000118870471805001000000000000000007E
:100600000022034B9A605B601B605B611B6170475B
:1006100018050010000000000000000000000000AD
:10062000002210B404468168064B02771B689A6862
:100630008A42FBD25A682046236062605C60146084
:1006400010BC7047180500100000000000000000FA
:1006500030B414240125074B99691A680877CC77C0
:1006600014681046636015771C6030BC9A61FFF710
:1006700087BE00BF18050010000000000000000049
:1006800030B54B1C87B012D005460C4C01A8A369AD
:100690000B4AFFF745FF2846FFF7DAFF049B13B12B
:1006A00001A8FFF75DFFA369586A07B030BDFFF7E7
:1006B000CFFF024CA369586A07B030BD180500107F
:1006C0009105000000000000000000000000000094
:1006D000144BF0B49D69416204468168A868814268
:1006E0000CD8002222771B689A689142FBD95A687D
:1006F000236062605C601460F0BC704700211A46A1
:100700002977126891688842FBD9012756682946E3
:1007100085E8440055603560277720469C61F0BC31
:10072000FFF72EBE180500100000000000000000BA
:100730000121F0B4142700260C4A1068946905685A
:1007400003466A600177A16815609061E7772677B4
:1007500000E01B689A688A42FBD25A6821462360EF
:1007600062605C601460F0BCFFF70ABE1805001000
:10077000012170B400260C4A10689469056803468C
:100780006A600177A16815609061267700E01B68B8
:100790009A688A42FBD85A682146236062605C608E
:1007A000146070BCFFF7ECBD1805001000000000DD
:1007B000034B9B69DB7F0BB1FFF7DABFFFF7B8BFD5
:1007C00018050010000000000000000000000000FC
:1007D000F0B500224FF0020E142701260C4C816068
:1007E000656901640461456100F12C01606100F1FB
:1007F000280480F81CE0C77786774277C26382635B
:1008000002628261286184620163C162F0BD00BF3F
:1008100018050010000000000000000000000000AB
:100820002DE9F0421E460446402383F3118800253B
:100830004FF0140C4FF0010E4FF002092439471805
:10084000C76046500699134B796013495E69396257
:100850008260026400F1280700F12C020361466106
:1008600080F81C90586180F81FC080F81EE0457722
:10087000C5638563056285612946306187620263CD
:10088000C262FFF725FF2B4683F311882046BDE89F
:10089000F08200BF18050010910300000000000066
:1008A00008B50146402383F311880620FFF7E8FED0
:1008B000002383F3118808BD000000000000000041
:1008C00038B50E4B9C692546606255F8280FA84242
:1008D00006D00368A362FFF7A3FEA06AA842F8D17E
:1008E000637F9B0704D1226963691A61226953619E
:1008F0000E20BDE83840FFF7ABBE00BF1805001062
:10090000402383F31188FFF7DBBF00BF0000000026
:100910000023406000608360704700BF000000005B
:1009200008B5836B027F1943082A81630AD0092A1C
:1009300000D008BD436A8B43FBD1FFF771FE002353
:10094000436208BD436A1942F7D108BD00000000A8
:1009500070B50468A0420BD005460E46E368A16856
:100960003343E3606068FFF7DBFF2468A542F5D1FD
:1009700070BD00BF0000000000000000000000008B
:1009800069B10246074B10B49B690D205A62546846
:1009900083E814005360236010BCFFF771BE4FF072
:1009A000FF30704718050010000000000000000034
:1009B00030B40025029C0A448560046202614060F4
:1009C000006041618161C160C36130BC704700BF9C
:1009D000836942699A4283681ED010B50133541C62
:1009E000836044611170426903699A420DD20268C2
:1009F00082420FD003461168104619604B60FFF722
:100A00000FFE00234362184610BD0268C36882428D
:100A10004361EFD1002010BD002BDED06FF003004A
:100A2000704700BF00000000000000000000000050
:100A300070B540230E46044683F31188C3693BB169
:100A4000984705E031462046FFF79AFF00280FDB64
:100A5000A568002DF6D0A2692169531C8B42A361C1
:100A600005F1FF3528BFE368A560107828BFA361B2
:100A7000002383F3118870BD000000000000000017
:100A80002DE9F0471E46044689469246D0F81C8060
:100A9000402383F311880027B8F1000F07D02046C8
:100AA000C04704E031462046FFF76AFFD0B9A56889
:100AB000002DF7D0A369013D5A1CA261A5601B78E7
:100AC00009F8013B2369A2699A4224BFE368A36144
:100AD000002383F311880137BA4506D0402383F3FE
:100AE0001188D9E72B4683F311883846BDE8F08793
:100AF00030B4029C8D180561046240600060826021
:100B000041618161C160C36130BC70470000000079
:100B1000F8B504460F461646402383F3118805E0D6
:100B200031462046FFF72CFF002817DBA568002D73
:100B3000F6D06369013D5A1C6261A5601F7023698C
:100B400062699A4224BFE3686361E3690BB120469E
:100B50009847002383F311881846F8BD2B4683F38A
:100B60001188F8BD00000000000000000000000037
:100B700038B5826943699342836818D00569511C6E
:100B8000013383608161A94214780DD202688242E8
:100B900008D003461168104619604B60FFF740FD0E
:100BA00000234362204638BDC3688361EEE7002B13
:100BB000E4D06FF0020038BD00000000000000002B
:100BC0002DE9F84F9A4604460E461746D0F81C9079
:100BD000402383F311884FF00008A56806F1010B4C
:100BE0006A1E0DB36369A2605A1C626132781A7082
:100BF000236962699A4224BFE3686361B9F1000F17
:100C000001D02046C847002383F31188013F08F133
:100C1000010812D0402383F311885E46A56806F1CF
:100C2000010B6A1E002DDDD151462046FFF7A8FEBC
:100C30000028D2D02B4683F311884046BDE8F88FB8
:100C4000054A064B0648074922F0070223F007032E
:100C500002600B60704700BFC707001000800010E3
:100C600038050010340500100000000000000000EE
:100C700010B4402383F31188094C0A4B2268196889
:100C8000C31D23F00703891A8B429DBF9B18236065
:100C900010460020002383F3118810BC704700BF6A
:100CA00038050010340500100000000000000000AE
:100CB0000022044B044903F110009A60DA601960C5
:100CC000FFF726BE40050010710C00000000000078
:100CD0000EB42DE9F04F814686B00FAB53F8048B6C
:100CE000C04E02930DF1170798F8001008F10103A8
:100CF00069B1252910D09846D9F800204846926855
:100D0000904798F8001008F101030029F1D106B0CE
:100D1000BDE8F04F03B0704798F801202D2A03BFBB
:100D200098F8022008F102034FF0010E4FF0000E78
:100D30002E2A00F05981302A00F0568120254FF0EC
:100D4000000C02986446591C07E04FF0010C037830
:100D5000043011F8012B03EB4A04A2F13003DBB29B
:100D6000092B884604EB840AF3D92A2AEDD0BCF17A
:100D7000000F40F0FC812E2A00F03A81002102F0A1
:100D8000DF034C2B00F0B780A2F14103A2F1440035
:100D9000DBB2342800F2A280DFE810F08201A0006C
:100DA000A000A000A0008201A000A000A000A00060
:100DB000A0007F01A000A000A000A000A0005101A1
:100DC000A000A000AE01A000A000A000A000A00014
:100DD000A000A000A000A000A00088008201A00048
:100DE000A000A000A0008201A000A000A000A00020
:100DF000A0007F01A000A000A0003500A0005101CC
:100E0000A000A000AE01029BD3F800A0043302931F
:100E1000BAF1000F00F0A1819AF80030002940F0EB
:100E20009981002B00F09F8147F6FE73514601E047
:100E3000013B03D411F8012F002AF9D1A1EB0A01DB
:100E4000641A01F1FF3B4FF020053DD4BEF1000FC5
:100E50004DD16342002C49D09AF800102D2900F0A2
:100E60004E811C46D9F8003029469B684846984771
:100E70000134F7D1BBF1000FFFF636AFD9F80030DF
:100E80000BF1FF3B9B681AF8011B48469847BBF1E2
:100E9000FF3FF3D1002C3FF427AFD9F800302946AB
:100EA0009B6848469847013CF7D11DE74FF0000B7F
:100EB00001212025029B0DF1180A1A6804330293C0
:100EC0000AF80C2D641AC1D5BEF1000F40F0B080B5
:100ED000BBF1000FA8BF7446D0DA05E70DF1180A80
:100EE0004FF0000B01210AF80C2DEBE71C46BBF17B
:100EF000000FC3DACEE798F8003013B11A4608F1B4
:100F00000108A2F14403342BE8D801A050F823F0E3
:100F10002B110000DD0E0000DD0E0000DD0E0000D4
:100F2000DD0E00002B110000DD0E0000DD0E0000C4
:100F3000DD0E0000DD0E0000DD0E00001D110000C2
:100F4000DD0E0000DD0E0000DD0E0000DD0E0000F5
:100F5000DD0E000049110000DD0E0000DD0E000076
:100F60004F110000DD0E0000DD0E0000DD0E000060
:100F7000DD0E0000DD0E0000DD0E0000DD0E0000C5
:100F8000DD0E0000DD0E0000DD0E0000AD0E0000E5
:100F90002B110000DD0E0000DD0E0000DD0E000054
:100FA000DD0E00002B110000DD0E0000DD0E000044
:100FB000DD0E0000DD0E0000DD0E00001D11000042
:100FC000DD0E0000DD0E0000DD0E0000070E00004B
:100FD000DD0E000049110000DD0E0000DD0E0000F6
:100FE0004F110000CDCCCCCC5A7830250133A6E689
:100FF0004FF0000ADDF808C0514607E04FF0010A43
:101000009CF800300CF1040C03EB400118F8012BA4
:1010100001EB8100A2F13003DBB2092BF4D92A2ABB
:10102000ECD0BAF1000F3FF4AAAECDF808C0A6E6A6
:10103000BBF1000FA8BF0024BFF620AF54E64FF06D
:101040000A0C192B6CD9029B191D1A68029139469A
:1010500000E05946B2FBFCF00CFB102202F1300319
:10106000392BC8BF02F13703DBB201F8013C01F1B3
:10107000FF3B02460028ECD10DF10C0A0A46A7EB13
:101080000B0150468B4401E012F8013B934500F8F8
:10109000013BF9D101F1FF3B14E74FF0080CD0E719
:1010A000192B42D9029B1A68191D002A029142DBB2
:1010B0000DF10C0AD4460CF10B0B5946A6FB0203AA
:1010C000DB08184603EB8303A2EB43033033DBB2A8
:1010D00001F8013D02460028F0D1ABEB0102624469
:1010E00001E011F8013F0CF8013B6245F9D1A2EB98
:1010F0000A0101F1FF3BE5E64FF0100CA1E7302DAE
:101100007FF4AFAED9F800204846926801930AF107
:10111000010A90470BF1FF3B019BA2E64FF0080C40
:10112000029B1A1D02921A6891E7029B1A1D0292F5
:101130001A68002ABCDA2D2352428DF80C300DF1CA
:101140000D0C0DF10C0AB6E74FF00A0CE8E74FF072
:10115000100CE5E73BB14B1E68E609B947F6FF7195
:10116000DFF810A0F7E74FF0FF3B20256EE6029076
:1011700001E600BF70180000000000000000000041
:1011800008B500F095F8054800F08AF900F008F875
:1011900000F056F8BDE8084000F00ABBB0180000A7
:1011A00000F04EB900000000000000000000000048
:1011B0000122002302704360704700BF000000005E
:1011C0000C30FFF75DBC00BF000000000000000015
:1011D0000C304FF0FF33FFF753BC00BF000000009E
:1011E0003030FFF7EDBC00BF000000000000000041
:1011F00030304FF0FF33FFF7E3BC00BF00000000CA
:101200000C30FFF715BC00BF00000000000000001C
:101210000C304FF0FF31FFF70BBC00BF00000000A7
:101220003030FFF775BC00BF000000000000000078
:1012300030304FF0FF32FFF76BBC00BF0000000002
:1012400000F02EBA000000000000000000000000C6
:1012500070B50446012615460C4B82B0009040F84C
:10126000043B60600B4604F10C0004F1540126724B
:101270001022FFF79DFB00942B4604F1640104F15A
:1012800030001022FFF734FC02B070BD801800005F
:1012900010B54023044683F3118800F021FA02229E
:1012A0000023227283F3118810BD00BF00000000EC
:1012B00010B504210B20FFF79BF807220020084BF4
:1012C000084C09495C6098601A60CB68074A43F093
:1012D0008073CB60136843F00103136010BD00BF3F
:1012E00010E000E069810100F0ED00E0001000E096
:1012F0001F4BF0B55520AA244FF0020E00272426DC
:1013000001251A461968DFF870C021F4704141F4D4
:10131000804119601749C3F8A8C1C3F8AC11C3F8DC
:1013200004E1C3F80C71C3F88460C3F88C40C3F8BF
:101330008C00C3F88050C3F88C40C3F88C00D2F8FE
:1013400088305B01FBD50324AA2055230849C2F845
:101350008040C2F88C00C2F88C30D1F8883013F08D
:10136000407FFAD04FF40243C1F8C430F0BD00BF53
:1013700000C00F40555455545551515500000000C0
:1013800001210A4B10B51878DA680428116005D1DC
:10139000002002241C701160506150605B6803489B
:1013A0005B689847BDE81040FEF79ABF60050010E3
:1013B00001210A4B10B51878DA680428116005D1AC
:1013C000002002241C701160506150605B6803486B
:1013D0005B689847BDE81040FEF782BF70050010BB
:1013E00001210A4B10B51878DA680428116005D17C
:1013F000002002241C701160506150605B6803483B
:101400005B689847BDE81040FEF76ABF8005001092
:1014100001210A4B10B51878DA680428116005D14B
:10142000002002241C701160506150605B6803480A
:101430005B689847BDE81040FEF752BF900500106A
:101440004FF0402208B50C4B1846DA60FFF7B0FEAB
:101450000A4B0B4A1846DA60FFF7AAFE094B0A4A04
:101460001846DA60FFF7A4FE084B094A1846DA600E
:10147000BDE80840FFF79CBE600500107005001035
:101480000080004080050010000009409005001019
:1014900000400940000000000000000000000000C3
:1014A0000023F0B442680F4E0F4D3260C2680F4CFB
:1014B0002A6042690E492260C7690E4A0F60476A76
:1014C000176033612B6123610B61136103687361E2
:1014D00083686B610369636183694B61036A53616C
:1014E000F0BC704700C0092020C0092040C009207E
:1014F00060C0092080C0092000000000000000003A
:101500002DE9F0410746446F00F13006A36803F06F
:101510000F03013B0B2B6AD8DFE803F06748692211
:101520006906696969696922636913F0020F14BF6A
:10153000802100215A0748BF41F020011D0748BF04
:1015400041F04001D80648BF41F40071402383F3C5
:101550001188381DFFF7FCF9002383F31188D5E7C4
:10156000402383F311887B69002B43D0002383F34E
:1015700011886369DA07C9D507F10C0507F104087A
:1015800005E0002383F311886369DB07BED54023A0
:1015900083F3118821682846C9B2FFF719FA002899
:1015A000EFDA80214046FFF7D3F9EAE7102502E0A1
:1015B000013D2060AAD0402383F311883046FFF715
:1015C000D7FA002383F311889842F1DA6268402346
:1015D00022F00202626083F311880821381DFFF7B0
:1015E000B7F9002383F3118890E7BDE8F081236801
:1015F00023688BE704217818FFF7AAF9B6E700BF44
:10160000F8B5456F6B699B060BD50746102400F1B2
:1016100030063046FFF7ACFA002807DB013C2860B3
:10162000F7D16B6843F002036B60F8BD381D0821E9
:10163000BDE8F840FFF78CB9000000000000000092
:101640000148FFF7DDBF00BF1806001000000000D2
:101650000148FFF7D5BF00BFA00500100000000043
:1016600008B50348FFF74CFFBDE80840FEF738BE59
:10167000A0050010000000000000000000000000B5
:1016800008B50348FFF73CFFBDE80840FEF728BE59
:10169000180600100000000000000000000000001C
:1016A00038B5084D084A28460021084CFFF7D0FD00
:1016B000074B2046074A00216B67FFF7C9FD064B21
:1016C000636738BDA0050010511600001806001011
:1016D00000C00040411600000080094000000000EA
:1016E000F8B5294D037A002918BF0D46012B32D0D9
:1016F000264A436F904227D0254A904224D00020AA
:10170000024680264FF0000E10270524696841EA42
:10171000060CC3F80CC01A605860AA68D96042F081
:1017200007029A60C3F820E09F621E635C60F8BD08
:10173000184A6021D2F8C430052043F00803C2F8EB
:10174000C430FEF72DFE636F2968134A0901B2FB0E
:10175000F1F2100AD5E70D4B04469842E8D00C4B45
:10176000984203D00020636F0246CAE7094A60210D
:10177000D2F8C430072043F08073C2F8C430FEF7BB
:101780000FFE636FE0E700BFA0180000A005001087
:101790001806001000C00F40AA88E10500000000F4
:1017A000FFF7A6BD000000000000000000000000E0
:1017B000124B1A6842F050021A601A6C42F0A002F2
:1017C0001A641A6942F400321A611A6D42F4003246
:1017D0001A651A6942F400221A611A6D42F4002255
:1017E0001A655A6842F470725A605A6C42F4207258
:1017F0005A649A6E42F4C0129A66704700C0024062
:1018000008B50B4B0B4A1C460B490C4D88691169F6
:10181000856111611A6842F001021A6063694FF430
:101820007A7083F001036361FFF73AF8F6E700BFCF
:1018300040C0092000C0024018050010E018000058
:1018400069646C65000000000000000000000000FA
:101850006D61696E0016C011040448080C1014185C
:10186000001C1D1E1F2000000000000000000000E2
:10187000286E756C6C29000000000000000000005C
:10188000F1110000D111000031120000111200000E
:101890002112000001120000E1110000C11100003E
:1018A000009600000300000000000000000000009F
:1018B00000000000000040100000000000000000D8
:1018C0000000000000000000000000000000000018
:1018D0000000000000000000000000000000000008
:1018E000626C696E6B6572310000000000000000E0
:1018F0004465627567205669612053657269616C41
:10190000205573696E67205541525432200D0A00EC
:1019100069203D202564200D0A0000000000000021
:0C19200000C201000300000000000000F5
:040000030000016197
:00000001FF
