:100000000002001061090000610A0000610A00009E
:10001000610A0000610A0000610A0000610A000034
:10002000610A0000610A0000610A0000910A0000F4
:10003000610A0000610A0000610A0000710B000003
:10004000610A0000D11D0000011E0000311E0000E9
:10005000611E0000B1200000610A0000D1200000F4
:10006000610A0000610A0000610A0000610A0000E4
:10007000610A0000610A0000E12200000123000083
:10008000610A0000610A0000610A0000610A0000C4
:10009000610A0000610A0000610A0000610A0000B4
:1000A000610A0000610A0000610A0000610A0000A4
:1000B000610A0000610A0000610A0000610A000094
:0C00C000610A0000610A0000610A0000F3
:1000D00010B5002482B001F00BFD00F0B9FD4FF423
:1000E0007A7000F0E5FF1449144801F091FD1449BD
:1000F000124801F0A5FA4FF47A7000F0D9FF114BC5
:1001000045224FF4987100940F4800F091FF0F4B77
:1001100043224FF4D87100940D4800F089FF0094F9
:100120000C4B44224FF4D8710B4800F081FF4FF480
:100130007A7000F0BDFFFAE7C02700001806001033
:100140004027000031250000F00600109124000037
:1001500020080010E1250000D00900100000000078
:1001600081F0004102E000BF83F0004330B54FEA68
:1001700041044FEA430594EA050F08BF90EA020FD5
:100180001FBF54EA000C55EA020C7FEA645C7FEA68
:10019000655C00F0E2804FEA5454D4EB5555B8BF8B
:1001A0006D420CDD2C4480EA020281EA030382EAFC
:1001B000000083EA010180EA020281EA0303362D8E
:1001C00088BF30BD11F0004F4FEA01314FF4801C61
:1001D0004CEA113102D0404261EB410113F0004F73
:1001E0004FEA03334CEA133302D0524263EB43032A
:1001F00094EA050F00F0A780A4F10104D5F1200EC8
:100200000DDB02FA0EFC22FA05F2801841F1000122
:1002100003FA0EF2801843FA05F359410EE0A5F1F6
:1002200020050EF1200E012A03FA0EFC28BF4CF027
:10023000020C43FA05F3C01851EBE37101F00045DD
:1002400007D54FF0000EDCF1000C7EEB00006EEBEA
:100250000101B1F5801F1BD3B1F5001F0CD3490874
:100260005FEA30004FEA3C0C04F101044FEA4452CB
:1002700012F5800F80F09A80BCF1004F08BF5FEA52
:10028000500C50F1000041EB045141EA050130BD32
:100290005FEA4C0C404141EB010111F4801FA4F1D5
:1002A0000104E9D191F0000F04BF01460020B1FA2A
:1002B00081F308BF2033A3F10B03B3F120020CDA62
:1002C0000C3208DD02F1140CC2F10C0201FA0CF040
:1002D00021FA02F10CE002F11402D8BFC2F1200CA5
:1002E00001FA02F120FA0CFCDCBF41EA0C0190405B
:1002F000E41AA2BF01EB0451294330BD6FEA0404A4
:100300001F3C1CDA0C340EDC04F11404C4F120028E
:1003100020FA04F001FA02F340EA030021FA04F3A0
:1003200045EA030130BDC4F10C04C4F1200220FAF7
:1003300002F001FA04F340EA0300294630BD21FA35
:1003400004F0294630BD94F0000F83F4801306BFFB
:1003500081F480110134013D4EE77FEA645C18BFEF
:100360007FEA655C29D094EA050F08BF90EA020F86
:1003700005D054EA000C04BF1946104630BD91EA7E
:10038000030F1EBF0021002030BD5FEA545C05D181
:100390004000494128BF41F0004130BD14F58004C0
:1003A0003CBF01F5801130BD01F0004545F0FE4134
:1003B00041F470014FF0000030BD7FEA645C1ABF69
:1003C000194610467FEA655C1CBF0B46024650EAA0
:1003D000013406BF52EA033591EA030F41F40021CC
:1003E00030BD00BF90F0000F04BF0021704730B552
:1003F0004FF4806404F132044FF000054FF0000127
:1004000050E700BF90F0000F04BF0021704730B5E7
:100410004FF4806404F1320410F0004548BF4042BC
:100420004FF000013EE700BF42004FEAE2014FEA11
:1004300031014FEA02701FBF12F07F4393F07F4FEC
:1004400081F06051704792F0000F14BF93F07F4F1E
:10045000704730B54FF4607401F0004521F0004161
:1004600020E700BF50EA010208BF704730B54FF0E7
:1004700000050AE050EA010208BF704730B511F0EC
:10048000004502D5404261EB41014FF4806404F124
:1004900032045FEA915C3FF4DCAE4FF003025FEAA6
:1004A000DC0C18BF03325FEADC0C18BF033202EB2E
:1004B000DC02C2F1200300FA03FC20FA02F001FA88
:1004C00003FE40EA0E0021FA02F11444C1E600BF27
:1004D00070B54FF0FF0C4CF4E06C1CEA11541DBFDA
:1004E0001CEA135594EA0C0F95EA0C0F00F0DEF8A5
:1004F0002C4481EA030621EA4C5123EA4C5350EA8A
:10050000013518BF52EA033541F4801143F48013DA
:1005100038D0A0FB02CE4FF00005E1FB02E506F06B
:100520000042E0FB03E54FF00006E1FB03569CF0C0
:10053000000F18BF4EF0010EA4F1FF04B6F5007FC6
:1005400064F5407404D25FEA4E0E6D4146EB060638
:1005500042EAC62141EA55514FEAC52040EA5E50C1
:100560004FEACE2EB4F1FD0C88BFBCF5E06F1ED86B
:10057000BEF1004F08BF5FEA500E50F1000041EBA2
:10058000045170BD06F0004646EA010140EA02004F
:1005900081EA0301B4EB5C04C2BFD4EB0C0541EA71
:1005A000045170BD41F480114FF0000E013C00F386
:1005B000AB8014F1360FDEBF002001F0004170BDAA
:1005C000C4F10004203C35DA0C341BDC04F11404C3
:1005D000C4F1200500FA05F320FA04F001FA05F24F
:1005E00040EA020001F0004221F0004110EBD3701C
:1005F00021FA04F642EB06015EEA430E08BF20EA48
:10060000D37070BDC4F10C04C4F1200500FA04F3EA
:1006100020FA05F001FA04F240EA020001F000417C
:1006200010EBD37041F100015EEA430E08BF20EAEF
:10063000D37070BDC4F1200500FA05F24EEA020E37
:1006400020FA04F301FA05F243EA020321FA04F066
:1006500001F0004121FA04F220EA020000EBD3701D
:100660005EEA430E08BF20EAD37070BD94F0000F1D
:100670000FD101F00046400041EB010111F4801F51
:1006800008BF013CF7D041EA060195F0000F18BF02
:10069000704703F00046520043EB030313F4801F3E
:1006A00008BF013DF7D043EA0603704794EA0C0FF8
:1006B0000CEA135518BF95EA0C0F0CD050EA41060E
:1006C00018BF52EA4306D1D181EA030101F000418B
:1006D0004FF0000070BD50EA410606BF10461946B3
:1006E00052EA430619D094EA0C0F02D150EA0136BF
:1006F00013D195EA0C0F05D152EA03361CBF104600
:1007000019460AD181EA030101F0004141F0FE419E
:1007100041F470014FF0000070BD41F0FE4141F422
:10072000780170BD70B54FF0FF0C4CF4E06C1CEA22
:1007300011541DBF1CEA135594EA0C0F95EA0C0FD7
:1007400000F0A7F8A4EB050481EA030E52EA033592
:100750004FEA013100F088804FEA03334FF08055B3
:1007600045EA131343EA12634FEA022245EA1115E0
:1007700045EA10654FEA00260EF000419D4208BF91
:10078000964244F1FD0404F5407402D25B084FEA3E
:100790003202B61A65EB03055B084FEA32024FF4EA
:1007A00080104FF4002CB6EB020E75EB030E22BF47
:1007B000B61A754640EA0C005B084FEA3202B6EB07
:1007C000020E75EB030E22BFB61A754640EA5C00B6
:1007D0005B084FEA3202B6EB020E75EB030E22BF46
:1007E000B61A754640EA9C005B084FEA3202B6EB47
:1007F000020E75EB030E22BFB61A754640EADC0006
:1008000055EA060E18D04FEA051545EA16754FEA67
:1008100006164FEAC30343EA52734FEAC2025FEA85
:100820001C1CC0D111F4801F0BD141EA00014FF014
:1008300000004FF0004CB6E711F4801F04BF0143E5
:100840000020B4F1FD0C88BFBCF5E06F3FF6AFAE01
:10085000B5EB030C04BFB6EB020C5FEA500C50F191
:10086000000041EB045170BD0EF0004E4EEA113114
:1008700014EB5C04C2BFD4EB0C0541EA045170BD1B
:1008800041F480114FF0000E013C90E645EA060E5F
:100890008DE60CEA135594EA0C0F08BF95EA0C0F8D
:1008A0003FF43BAF94EA0C0F0AD150EA01347FF4D5
:1008B00034AF95EA0C0F7FF425AF104619462CE7AC
:1008C00095EA0C0F06D152EA03353FF4FDAE10460F
:1008D000194622E750EA410618BF52EA43067FF460
:1008E000C5AE50EA41047FF40DAF52EA43057FF4F0
:1008F000EBAE12E700000000000000000000000066
:100900004A0011D212F5001211D20DD56FF478738E
:10091000B3EB62520ED44FEAC12343F0004343EAE3
:10092000505323FA02F070474FF00000704750EA2E
:10093000013002D14FF0FF3070474FF00000704798
:10094000704700BF00000000000000000000000031
:10095000FEE700BF000000000000000000000000F3
:1009600072B6304880F30988022383F31488BFF3FA
:100970006F8F2D4B2D4CA3420BD2DA434FF05531E4
:10098000224422F0030204321A4443F8041B934227
:10099000FBD1274B83420BD24FF05531254AD21A57
:1009A00022F0030204321A4443F8041B9342FBD1A1
:1009B00001F03EFD204B214A93420CD2D843104413
:1009C00020F0030004301E4A184452F8041B43F878
:1009D000041B8342F9D11B4B1B4883420AD2DA43E2
:1009E0000021024422F0030204321A4443F8041B9B
:1009F0009A42FBD1154D164CFFF7A2FFAC4204D230
:100A000054F8043B9847AC42FAD3124D124CFFF70E
:100A10005FFBAC4204D254F8043B9847AC42FAD393
:100A2000FFF796FF00040010000000100002001005
:100A300000020010FF03001000040010000400106A
:100A4000D027000000040010800B0010CC00000034
:100A5000CC000000CC000000CC0000000000000032
:100A6000FEE700BF000000000000000000000000E2
:100A700072B6FEE700000000000000000000000069
:100A800000F09EFA00DF00BF000000000000000040
:100A9000EFF30983203383F30988002383F311885C
:100AA000704700BF000000000000000000000000D0
:100AB000002108B5094A0A4B07209960DA60202115
:100AC00000F09EF84FF400610A2000F099F8BDE8AC
:100AD000084080210B2000F093B800BF0004FA0505
:100AE00000ED00E000000000000000000000000039
:100AF000402383F31188174B5B6813F4006319D00C
:100B0000EFF30983A3F1200282F309884FF080728A
:100B1000114943F8042C8A69D07F70B10868916844
:100B200082688A4294BF002201227AB10B4A43F8BC
:100B3000082C704783F311887047086891688268B1
:100B40008A4234BF00220122002AEFD1044A43F82E
:100B5000082C704700ED00E018050010810A000025
:100B6000840A0000000000000000000000000000F7
:100B700008B5402383F3118800F09AF8002383F32B
:100B80001188BDE80840FFF7B3BF00BF00000000B8
:100B90002DE9F04FC1F80CD0D0F80CD0BDE8F08FA3
:100BA000002383F311882846A04700F0B1FA70476C
:100BB000F0B4FF27012620F0030202F1604202F5A3
:100BC0006142C400D2F8005304F018044309A7405E
:100BD0009B00A14025EA070503F1604300F01F00D8
:100BE00006FA00F0294303F56143C2F80013F0BC94
:100BF000C3F880011860704700000000000000008A
:100C000010B4FF2420F0030303F1604303F56D43A8
:100C100000F00300C0009A698440814022EA040089
:100C20000843986110BC70470000000000000000FD
:100C3000024B034A9B699A61FEE700BF180500104A
:100C400090260000000000000000000000000000EE
:100C500000B583B0FFF72CFF00F0DAF800F058F889
:100C600000F0A6FC00F0DCFC40210C4800F0B8F9D4
:100C700001220B4902778861002383F3118862B651
:100C800018468B69074999610090074BC0210748B6
:100C900000F0CEF903B05DF804FB00BFC004001003
:100CA00018050010A0260000310C00000004001000
:100CB00070B5134B9B69DA7F0AB1013ADA771A6A89
:100CC000104C01321A62E36822680133A242E360E9
:100CD00014D09668013E966086B91168D568216087
:100CE000D66000234C6083F311881069A847402325
:100CF00083F3118822689368002BEED070BD00BF8B
:100D00001805001008050010000000000000000099
:100D10004FF0FF310022034B99605B601B60DA608B
:100D2000704700BF08050010000000000000000030
:100D300010B40C4C03612368C2609A68914204D9D4
:100D40001B68891A9A688A42FAD35A68A3420360D8
:100D5000426058601060816002D09A68511A9960B0
:100D600010BC7047080500100000000000000000E3
:100D7000074A0368934203D09A6881680A449A60DC
:100D800000214268136003685A60C160704700BF69
:100D90000805001000000000000000000000000036
:100DA000402383F31188037F0D2B11D8DFE803F074
:100DB00026101007100B101010101010100B426AA4
:100DC00093680133936090E80C001A6002685360E6
:100DD00010B400234FF0FF3481680A4A446203775D
:100DE000126893688B42FBD2516800230260416015
:100DF0005060086083F3118810BC7047002383F3B0
:100E00001188704718050010000000000000000065
:100E10000022034B9A605B601B605B611B61704743
:100E20001805001000000000000000000000000095
:100E3000002210B404468168064B02771B689A684A
:100E40008A42FBD25A682046236062605C6014606C
:100E500010BC7047180500100000000000000000E2
:100E600030B414240125074B99691A680877CC77A8
:100E700014681046636015771C6030BC9A61FFF7F8
:100E800087BE00BF18050010000000000000000031
:100E900030B54B1C87B012D005460C4C01A8A36995
:100EA0000B4AFFF745FF2846FFF7DAFF049B13B113
:100EB00001A8FFF75DFFA369586A07B030BDFFF7CF
:100EC000CFFF024CA369586A07B030BD1805001067
:100ED000A10D000000000000000000000000000064
:100EE000144BF0B49D69416204468168A868814250
:100EF0000CD8002222771B689A689142FBD95A6865
:100F0000236062605C601460F0BC704700211A4688
:100F10002977126891688842FBD9012756682946CB
:100F200085E8440055603560277720469C61F0BC19
:100F3000FFF72EBE180500100000000000000000A2
:100F40000121F0B4142700260C4A10689469056842
:100F500003466A600177A16815609061E77726779C
:100F600000E01B689A688A42FBD25A6821462360D7
:100F700062605C601460F0BCFFF70ABE18050010E8
:100F8000012170B400260C4A106894690568034674
:100F90006A600177A16815609061267700E01B68A0
:100FA0009A688A42FBD85A682146236062605C6076
:100FB000146070BCFFF7ECBD1805001000000000C5
:100FC000034B9B69DB7F0BB1FFF7DABFFFF7B8BFBD
:100FD00018050010000000000000000000000000E4
:100FE000F0B500224FF0020E142701260C4C816050
:100FF000656901640461456100F12C01606100F1E3
:10100000280480F81CE0C77786774277C263826342
:1010100002628261286184620163C162F0BD00BF27
:101020001805001000000000000000000000000093
:101030002DE9F0421E460446402383F31188002523
:101040004FF0140C4FF0010E4FF0020924394718ED
:10105000C76046500699134B796013495E6939623F
:101060008260026400F1280700F12C0203614661EE
:1010700080F81C90586180F81FC080F81EE045770A
:10108000C5638563056285612946306187620263B5
:10109000C262FFF725FF2B4683F311882046BDE887
:1010A000F08200BF18050010A10B00000000000036
:1010B00008B50146402383F311880620FFF7E8FEB8
:1010C000002383F3118808BD000000000000000029
:1010D00038B50E4B9C692546606255F8280FA8422A
:1010E00006D00368A362FFF7A3FEA06AA842F8D166
:1010F000637F9B0704D1226963691A612269536186
:101100000E20BDE83840FFF7ABBE00BF1805001049
:10111000402383F31188FFF7DBBF00BF000000000E
:101120000023406000608360704700BF0000000043
:10113000304B826870B59C69002A56D0A1689368CC
:101140000546994206D9137F9160042B33D0052BB5
:101150001DD09BB12B4603E09968A268914202D34F
:101160001B689D42F8D15A68236062605C6014601D
:1011700065620420BDE87040FFF772BE92E80A0085
:101180001960104612685360FFF752FEE2E792E8DA
:101190000900186010684360566A334602E0986898
:1011A000884202D31B689E42F9D15968136051608E
:1011B0005A600A60CEE792E8090018601068436040
:1011C000566A334602E09868884203D31B689E4201
:1011D000F9D133465968136051605A600A60B268A9
:1011E000A16893688B42AED3B4E7E36B8460C360BD
:1011F000E06370BD18050010000000000000000052
:1012000008B5402383F31188FFF792FF002383F38F
:10121000118808BD00000000000000000000000070
:10122000174A38B59069402383F31188C46B256849
:10123000E368A542C3631CD0016C4BB11A689A42A3
:1012400003D09268914238BF1146DB68002BF5D17C
:101250002B68EA6B8160236028465C600021A560F2
:10126000E260EC63FFF73CFE002383F31188204625
:1012700038BD0023A360002383F31188204638BDC6
:101280001805001000000000000000000000000031
:1012900008B5836B027F1943082A81630AD0092AA3
:1012A00000D008BD436A8B43FBD1FFF7C1FD00238B
:1012B000436208BD436A1942F7D108BD000000002F
:1012C00070B50468A0420BD005460E46E368A168DD
:1012D0003343E3606068FFF7DBFF2468A542F5D184
:1012E00070BD00BF00000000000000000000000012
:1012F00069B10246074B10B49B690D205A625468CD
:1013000083E814005360236010BCFFF7C1BD4FF0A9
:10131000FF307047180500100000000000000000BA
:1013200030B40025029C0A4485600462026140607A
:10133000006041618161C160C36130BC704700BF22
:10134000836942699A4283681ED010B50133541CE8
:10135000836044611170426903699A420DD2026848
:1013600082420FD003461168104619604B60FFF7A8
:101370005FFD00234362184610BD0268C3688242C5
:101380004361EFD1002010BD002BDED06FF00300D1
:10139000704700BF000000000000000000000000D7
:1013A00070B540230E46044683F31188C3693BB1F0
:1013B000984705E031462046FFF79AFF00280FDBEB
:1013C000A568002DF6D0A2692169531C8B42A36148
:1013D00005F1FF3528BFE368A560107828BFA36139
:1013E000002383F3118870BD00000000000000009E
:1013F0002DE9F0471E46044689469246D0F81C80E7
:10140000402383F311880027B8F1000F07D020464E
:10141000C04704E031462046FFF76AFFD0B9A5680F
:10142000002DF7D0A369013D5A1CA261A5601B786D
:1014300009F8013B2369A2699A4224BFE368A361CA
:10144000002383F311880137BA4506D0402383F384
:101450001188D9E72B4683F311883846BDE8F08719
:1014600030B4029C8D1805610462406000608260A7
:1014700041618161C160C36130BC70470000000000
:10148000F8B504460F461646402383F3118805E05D
:1014900031462046FFF72CFF002817DBA568002DFA
:1014A000F6D06369013D5A1C6261A5601F70236913
:1014B00062699A4224BFE3686361E3690BB1204625
:1014C0009847002383F311881846F8BD2B4683F311
:1014D0001188F8BD000000000000000000000000BE
:1014E00038B5826943699342836818D00569511CF5
:1014F000013383608161A94214780DD2026882426F
:1015000008D003461168104619604B60FFF790FC45
:1015100000234362204638BDC3688361EEE7002B99
:10152000E4D06FF0020038BD0000000000000000B1
:101530002DE9F84F9A4604460E461746D0F81C90FF
:10154000402383F311884FF00008A56806F1010BD2
:101550006A1E0DB36369A2605A1C626132781A7008
:10156000236962699A4224BFE3686361B9F1000F9D
:1015700001D02046C847002383F31188013F08F1BA
:10158000010812D0402383F311885E46A56806F156
:10159000010B6A1E002DDDD151462046FFF7A8FE43
:1015A0000028D2D02B4683F311884046BDE8F88F3F
:1015B000054A064B0648074922F0070223F00703B5
:1015C00002600B60704700BF870B001000800010A6
:1015D0003805001034050010000000000000000075
:1015E00010B4402383F31188094C0A4B2268196810
:1015F000C31D23F00703891A8B429DBF9B182360EC
:1016000010460020002383F3118810BC704700BFF0
:101610003805001034050010000000000000000034
:101620000022044B044903F110009A60DA6019604B
:10163000FFF776BD40050010E11500000000000036
:101640000EB42DE9F04F814686B00FAB53F8048BF2
:10165000C04E02930DF1170798F8001008F101032E
:1016600069B1252910D09846D9F8002048469268DB
:10167000904798F8001008F101030029F1D106B055
:10168000BDE8F04F03B0704798F801202D2A03BF42
:1016900098F8022008F102034FF0010E4FF0000EFF
:1016A0002E2A00F05981302A00F0568120254FF073
:1016B000000C02986446591C07E04FF0010C0378B7
:1016C000043011F8012B03EB4A04A2F13003DBB222
:1016D000092B884604EB840AF3D92A2AEDD0BCF101
:1016E000000F40F0FC812E2A00F03A81002102F028
:1016F000DF034C2B00F0B780A2F14103A2F14400BC
:10170000DBB2342800F2A280DFE810F08201A000F2
:10171000A000A000A0008201A000A000A000A000E6
:10172000A0007F01A000A000A000A000A000510127
:10173000A000A000AE01A000A000A000A000A0009A
:10174000A000A000A000A000A00088008201A000CE
:10175000A000A000A0008201A000A000A000A000A6
:10176000A0007F01A000A000A0003500A000510152
:10177000A000A000AE01029BD3F800A004330293A6
:10178000BAF1000F00F0A1819AF80030002940F072
:101790009981002B00F09F8147F6FE73514601E0CE
:1017A000013B03D411F8012F002AF9D1A1EB0A0162
:1017B000641A01F1FF3B4FF020053DD4BEF1000F4C
:1017C0004DD16342002C49D09AF800102D2900F029
:1017D0004E811C46D9F8003029469B6848469847F8
:1017E0000134F7D1BBF1000FFFF636AFD9F8003066
:1017F0000BF1FF3B9B681AF8011B48469847BBF169
:10180000FF3FF3D1002C3FF427AFD9F80030294631
:101810009B6848469847013CF7D11DE74FF0000B05
:1018200001212025029B0DF1180A1A680433029346
:101830000AF80C2D641AC1D5BEF1000F40F0B0803B
:10184000BBF1000FA8BF7446D0DA05E70DF1180A06
:101850004FF0000B01210AF80C2DEBE71C46BBF101
:10186000000FC3DACEE798F8003013B11A4608F13A
:101870000108A2F14403342BE8D801A050F823F06A
:101880009B1A00004D1800004D1800004D18000074
:101890004D1800009B1A00004D1800004D18000064
:1018A0004D1800004D1800004D1800008D1A000062
:1018B0004D1800004D1800004D1800004D18000094
:1018C0004D180000B91A00004D1800004D18000016
:1018D000BF1A00004D1800004D1800004D18000000
:1018E0004D1800004D1800004D1800004D18000064
:1018F0004D1800004D1800004D1800001D18000084
:101900009B1A00004D1800004D1800004D180000F3
:101910004D1800009B1A00004D1800004D180000E3
:101920004D1800004D1800004D1800008D1A0000E1
:101930004D1800004D1800004D18000077170000EA
:101940004D180000B91A00004D1800004D18000095
:10195000BF1A0000CDCCCCCC5A7830250133A6E696
:101960004FF0000ADDF808C0514607E04FF0010AC9
:101970009CF800300CF1040C03EB400118F8012B2B
:1019800001EB8100A2F13003DBB2092BF4D92A2A42
:10199000ECD0BAF1000F3FF4AAAECDF808C0A6E62D
:1019A000BBF1000FA8BF0024BFF620AF54E64FF0F4
:1019B0000A0C192B6CD9029B191D1A680291394621
:1019C00000E05946B2FBFCF00CFB102202F13003A0
:1019D000392BC8BF02F13703DBB201F8013C01F13A
:1019E000FF3B02460028ECD10DF10C0A0A46A7EB9A
:1019F0000B0150468B4401E012F8013B934500F87F
:101A0000013BF9D101F1FF3B14E74FF0080CD0E79F
:101A1000192B42D9029B1A68191D002A029142DB38
:101A20000DF10C0AD4460CF10B0B5946A6FB020330
:101A3000DB08184603EB8303A2EB43033033DBB22E
:101A400001F8013D02460028F0D1ABEB01026244EF
:101A500001E011F8013F0CF8013B6245F9D1A2EB1E
:101A60000A0101F1FF3BE5E64FF0100CA1E7302D34
:101A70007FF4AFAED9F800204846926801930AF18E
:101A8000010A90470BF1FF3B019BA2E64FF0080CC7
:101A9000029B1A1D02921A6891E7029B1A1D02927C
:101AA0001A68002ABCDA2D2352428DF80C300DF151
:101AB0000D0C0DF10C0AB6E74FF00A0CE8E74FF0F9
:101AC000100CE5E73BB14B1E68E609B947F6FF711C
:101AD000DFF810A0F7E74FF0FF3B20256EE60290FD
:101AE00001E600BFC026000000000000000000006A
:101AF00008B500F005F9064800F0FAF900F010F812
:101B000000F05EF800F094F8BDE8084000F098BCE2
:101B1000002700000000000000000000000000009E
:101B200000F0B6B900000000000000000000000056
:101B30000122002302704360704700BF00000000D4
:101B40000C30FFF755BC00BF000000000000000093
:101B50000C304FF0FF33FFF74BBC00BF000000001C
:101B60003030FFF7E5BC00BF0000000000000000BF
:101B700030304FF0FF33FFF7DBBC00BF0000000048
:101B80000C30FFF70DBC00BF00000000000000009B
:101B90000C304FF0FF31FFF703BC00BF0000000026
:101BA0003030FFF76DBC00BF0000000000000000F7
:101BB00030304FF0FF32FFF763BC00BF0000000081
:101BC00000F096BA000000000000000000000000D5
:101BD00070B50446012615460C4B82B0009040F8C3
:101BE000043B60600B4604F10C0004F154012672C2
:101BF0001022FFF795FB00942B4604F1640104F1D9
:101C000030001022FFF72CFC02B070BDD02600007F
:101C100010B54023044683F3118800F089FA0222AC
:101C20000023227283F3118810BD00BF0000000062
:101C300000F076BB00000000000000000000000083
:101C4000002301224360027083600C30FFF768BA02
:101C500010B54023044683F31188416000F078FBFF
:101C600002220023227083F3118810BD00000000BF
:101C700008B5402383F3118800F0BAFB002383F3F7
:101C8000118808BD000000000000000000000000F6
:101C900008B5402383F3118800F0B2FB002383F3DF
:101CA000118808BD000000000000000000000000D6
:101CB00010B54023044683F311880323037000F01A
:101CC000A7FB054B02209B69A360FFF7C9F800231F
:101CD00083F3118810BD00BF18050010000000003C
:101CE0000C30FFF78DBA00BF0000000000000000BC
:101CF000FFF796BA0000000000000000000000009E
:101D000010B504210B20FEF77BFF07220020084BB3
:101D1000084C09495C6098601A60CB68074A43F038
:101D20008073CB60136843F00103136010BD00BFE4
:101D300010E000E069810100F0ED00E0001000E03B
:101D40001F4BF0B55520AA244FF0020E0027242681
:101D500001251A461968DFF870C021F4704141F47A
:101D6000804119601749C3F8A8C1C3F8AC11C3F882
:101D700004E1C3F80C71C3F88460C3F88C40C3F865
:101D80008C00C3F88050C3F88C40C3F88C00D2F8A4
:101D900088305B01FBD50324AA2055230849C2F8EB
:101DA0008040C2F88C00C2F88C30D1F8883013F033
:101DB000407FFAD04FF40243C1F8C430F0BD00BFF9
:101DC00000C00F4055545554555151550000000066
:101DD00001210A4B10B51878DA680428116005D182
:101DE000002002241C701160506150605B68034841
:101DF0005B689847BDE81040FEF77ABE60050010AA
:101E000001210A4B10B51878DA680428116005D151
:101E1000002002241C701160506150605B68034810
:101E20005B689847BDE81040FEF762BE7005001081
:101E300001210A4B10B51878DA680428116005D121
:101E4000002002241C701160506150605B680348E0
:101E50005B689847BDE81040FEF74ABE8005001059
:101E600001210A4B10B51878DA680428116005D1F1
:101E7000002002241C701160506150605B680348B0
:101E80005B689847BDE81040FEF732BE9005001031
:101E90004FF0402208B50C4B1846DA60FFF748FEB9
:101EA0000A4B0B4A1846DA60FFF742FE094B0A4A12
:101EB0001846DA60FFF73CFE084B094A1846DA601C
:101EC000BDE80840FFF734BE600500107005001043
:101ED00000800040800500100000094090050010BF
:101EE0000040094000000000000000000000000069
:101EF0000023F0B442680F4E0F4D3260C2680F4CA1
:101F00002A6042690E492260C7690E4A0F60476A1B
:101F1000176033612B6123610B6113610368736187
:101F200083686B610369636183694B61036A536111
:101F3000F0BC704700C0092020C0092040C0092023
:101F400060C0092080C009200000000000000000DF
:101F50002DE9F0410746446F00F13006A36803F015
:101F60000F03013B0B2B6AD8DFE803F067486922B7
:101F70006906696969696922636913F0020F14BF10
:101F8000802100215A0748BF41F020011D0748BFAA
:101F900041F04001D80648BF41F40071402383F36B
:101FA0001188381DFFF78CF9002383F31188D5E7DA
:101FB000402383F311887B69002B43D0002383F3F4
:101FC00011886369DA07C9D507F10C0507F1040820
:101FD00005E0002383F311886369DB07BED5402346
:101FE00083F3118821682846C9B2FFF7A9F90028B0
:101FF000EFDA80214046FFF763F9EAE7102502E0B7
:10200000013D2060AAD0402383F311883046FFF7BA
:1020100067FA002383F311889842F1DA626840235B
:1020200022F00202626083F311880821381DFFF755
:1020300047F9002383F3118890E7BDE8F081236816
:1020400023688BE704217818FFF73AF9B6E700BF59
:10205000F8B5456F6B699B060BD50746102400F158
:1020600030063046FFF73CFA002807DB013C2860C9
:10207000F7D16B6843F002036B60F8BD381D08218F
:10208000BDE8F840FFF71CB90000000000000000A8
:102090000148FFF7DDBF00BF180600100000000078
:1020A0000148FFF7D5BF00BFA005001000000000E9
:1020B00008B50348FFF74CFFBDE80840FEF718BD20
:1020C000A00500100000000000000000000000005B
:1020D00008B50348FFF73CFFBDE80840FEF708BD20
:1020E00018060010000000000000000000000000C2
:1020F00038B5084D084A28460021084CFFF768FD0E
:10210000074B2046074A00216B67FFF761FD064B2E
:10211000636738BDA0050010A1200000180600105C
:1021200000C0004091200000008009400000000035
:10213000F8B5294D037A002918BF0D46012B32D07E
:10214000264A436F904227D0254A904224D000204F
:10215000024680264FF0000E10270524696841EAE8
:10216000060CC3F80CC01A605860AA68D96042F027
:1021700007029A60C3F820E09F621E635C60F8BDAE
:10218000184A6021D2F8C430052043F00803C2F891
:10219000C430FEF70DFD636F2968134A0901B2FBD5
:1021A000F1F2100AD5E70D4B04469842E8D00C4BEB
:1021B000984203D00020636F0246CAE7094A6021B3
:1021C000D2F8C430072043F08073C2F8C430FEF761
:1021D000EFFC636FE0E700BFF0260000A0050010F1
:1021E0001806001000C00F40AA88E105000000009A
:1021F00070B4C569816AEB6808290C4628BF0824B9
:102200009A071BD5D4B14FF0FF3612E02A6802F0CE
:102210000F02072A8CBF33F8022B13F8012BAA6098
:10222000C362EB6801399B07816204F1FF3405D575
:1022300024B1C36A002BE9D1AE60F2E770BC7047ED
:1022400038B5C5690446EB69DA073FD403232B622E
:102250000EE02A6802F00F02072AAA688CBF23F852
:10226000022B03F8012B6362236A013B23625BB1FB
:10227000EB685B0722D5636A002BEAD1AB68236A5F
:10228000013B2362002BF3D162686B61136803B3D7
:1022900004222046227098472378042B19D040232B
:1022A00083F31188A3682BB100221846A2605A62FA
:1022B000FEF7BEFD002383F3118838BD2046FFF7EB
:1022C00097FFA36A0BB907236B6138BDFEF7D0FBFC
:1022D000BCE702232370E2E70000000000000000DA
:1022E00008B50348FFF7ACFFBDE80840FEF700BCA7
:1022F0009006001000000000000000000000000038
:1023000008B50348FFF79CFFBDE80840FEF7F0BBA7
:10231000C0060010000000000000000000000000E7
:1023200038B5064D064C2846FFF78AFC054B20467B
:10233000EB61FFF785FC044BE36138BD90060010AC
:10234000C0060010008008400000034000000000AC
:10235000037870B5012B04460CD00026032502211A
:102360006268E3695089D2685E601D6218601A6114
:10237000596070BD1A4B98421AD01A4B9842ECD152
:10238000194BA021D3F8C4200F2042F48062C3F877
:10239000C420D3F8AC2122F44062C3F8AC21D3F8B6
:1023A000AC2142F48062C3F8AC21FEF701FCD4E713
:1023B0000D4BA021D3F8C4200E2042F40012C3F824
:1023C000C420D3F8A82122F44012C3F8A821D3F8DE
:1023D000A82142F48012C3F8A821FEF7E9FBBCE76C
:1023E00090060010C006001000C00F400000000062
:1023F00001234268118952688B40D361704700BF46
:1024000001234268118952688B409361704700BF75
:1024100000234262C36210B581620162FFF7E8FEE9
:102420000F22C3695A6110BD0000000000000000C7
:10243000FFF786BC00000000000000000000000064
:10244000124B1A6842F050021A601A6C42F0A00255
:102450001A641A6942F400321A611A6D42F40032A9
:102460001A651A6942F400221A611A6D42F40022B8
:102470001A655A6842F470725A605A6C42F42072BB
:102480005A649A6E42F4C0129A66704700C00240C5
:102490004FF0FF361C4880B5044637461B4A1C499E
:1024A000D2F8C43089691B4D43F400338D61C2F802
:1024B000C430D2F8AC11184B41F08041C2F8AC11D5
:1024C000DA68164942F48022DA60DA6C144D42F47C
:1024D0004022DA64CB7843F00203CB7085624EF67B
:1024E00060234FF48075A76041F2883063636560B4
:1024F000FEF7DEFD0B4BA66041F28830636365603A
:10250000FEF7D6FDEBE700BF00800B4000C00F4098
:10251000180500107027000000C0024020C00920EC
:1025200080841E00400D0300000000000000000039
:1025300008B50B4B0B4A1C460B490C4D88691169B9
:10254000856111611A7842F001021A7063694FF4D3
:102550007A7083F001036361FEF7AAFDF6E700BF1E
:1025600040C0092000C0024018050010602700008C
:1025700070B50026174C86B08DE80F0020468DF808
:1025800014608DF81560FFF7ABFB69462046FFF736
:102590005FFB2046FFF76CFB05AA02212046FFF7F0
:1025A00087FB2046FFF774FB2046FFF7A1FB9DF851
:1025B00014309DF8150040EA0320C008FDF722FF03
:1025C0000022054BFDF784FFFEF79AF980B206B0B2
:1025D00070BD00BFC00600100000D03F000000002A
:1025E000224A234B23489969D2F8C43070B58861D8
:1025F000C2F8C430D2F8A8111F4B41F48031C2F8A0
:10260000A81119681D4A41F400411960196C1C4851
:1026100041F44041196411781A4C41F08001117065
:102620001968194E41F400311960196C174D41F4C5
:10263000403119645178C9B251701A691A611A6D22
:1026400042F00C021A65037843F00203037094E829
:102650000F00FFF78DFF314602462846FEF7F0FFD8
:102660004FF4FA70FEF724FDF1E700BF00C00F4001
:10267000180500109027000000C0024000C009208B
:1026800040C00920302700009C27000018060010D9
:1026900069646C650000000000000000000000009C
:1026A0006D61696E0016C011040448080C101418FE
:1026B000001C1D1E1F200000000000000000000084
:1026C000286E756C6C2900000000000000000000FE
:1026D000711B0000511B0000B11B0000911B00008A
:1026E000A11B0000811B0000611B0000411B0000BA
:1026F0000096000003000000000000000000000041
:102700000000000000004010000000000000000079
:1027100000000000000000000000000000000000B9
:1027200000000000000000000000000000000000A9
:102730000000000040C00920010007080000000060
:102740004465627567205669612053657269616CE2
:10275000205573696E67205541525432200D0A008E
:10276000426C696E6B5F6465627567000000000013
:10277000536572766F5F7468726F74746C655F67AF
:102780006173000000000000000000000000000075
:1027900074656D705F6F696C0000000054656D704A
:1027A000203120284329203A20252E3264200D0A8A
:1027B0000D0A000000000000000000000000000002
:0C27C00000C20100030000000000000047
:04000003000009618F
:00000001FF
